:020000040800F2
:10000000D0150020E10100088D0A0008890A0008C7
:100010008B0A000871020008390B0008000000007C
:10002000000000000000000000000000490100087E
:1000300073020008000000008D0100088F0A00080C
:10004000FB010008FB010008FB010008FB010008A0
:10005000FB010008FB010008FB010008FB01000890
:10006000FB010008FB010008FB010008FB01000880
:10007000FB010008FB010008FB010008FB01000870
:10008000FB010008FB010008FB010008FB01000860
:10009000FB010008FB010008FB010008FB01000850
:1000A000FB010008FB010008FB010008FB01000840
:1000B000FB010008FB010008FB010008FB01000830
:1000C000FB010008FB010008FB010008FB01000820
:1000D000FB010008FB010008FB010008FB01000810
:1000E000FB010008FB010008FB010008FB01000800
:1000F000FB010008FB010008FB010008FB010008F0
:10010000FB010008FB010008FB010008FB010008DF
:10011000FB010008FB010008FB010008FB010008CF
:10012000FB010008FB010008FB010008FB010008BF
:10013000DFF810D000F08AF800480047B90B00083B
:10014000AFF30080D0150020224B19680868B0E892
:10015000F00F80F30988BFF36F8F4FF0000080F33A
:1001600011884EF00D0E7047000000000648006830
:10017000006880F3088862B661B6BFF34F8FBFF3A3
:100180006F8F00DF00BF00BF08ED00E0EFF30980D4
:10019000BFF36F8F0F4B1A6820E9F00F106008B59E
:1001A0004FF0BF0080F31188BFF34F8FBFF36F8F05
:1001B00001F058FA4FF0000080F31188BDE80840C4
:1001C00019680868B0E8F00F80F30988BFF36F8FF3
:1001D000704700BF20000020EFF30580704700004B
:1001E0000648804706480047FEE7FEE7FEE7FEE7D1
:1001F000FEE7FEE7FEE7FEE7FEE7FEE7E90A0008A6
:100200003101000840EA01039B0703D009E008C957
:10021000121F08C0042AFAD203E011F8013B00F8CB
:10022000013B521EF9D27047D2B201E000F8012B17
:10023000491EFBD270470022F6E710B513460A4666
:1002400004461946FFF7F0FF204610BD064C074D47
:1002500006E0E06840F0010394E807009847103496
:10026000AC42F6D3FFF768FFEC1C00080C1D000839
:10027000FEE770472DE9F84FDFF8C891002409F137
:10028000040A0AF1040B23460F270BF1040ED1E0F8
:100290000125A54006EA0502AA4276D1DFF8A8C1E9
:1002A0004E68A6EB0C0866452BD00DDC032E34D02F
:1002B00005DC36B3012E19D0022E2FD11BE0112EF2
:1002C00016D0122E2AD119E0B8F5881F19D006DCF5
:1002D000B8F5803F15D0B8F5801F1FD111E0B8F5F3
:1002E000001F0ED0B8F5041F18D10AE0CB6815E046
:1002F000CB681B1D12E0CB6808330FE0CB680C33D2
:100300000CE08B682BB1012B4FF0080303D0456143
:1003100004E0042302E0056100E00023FF2A01D885
:10032000064601E000F104064FEA840501D9A5F173
:100330002005D6F8008007FA05FC28EA0C0803FA25
:1003400005F548EA0508C6F800804D68ED0070D54F
:100350003E4DAE6946F00106AE61AD6924F003067C
:1003600005F0010500953A4D06EB050CDCF8085048
:10037000A607360F07FA06F825EA0805DFF8D48045
:10038000404503D14FF0000825E052E0DFF8C88077
:10039000404502D14FF001081DE0DFF8C080404524
:1003A00002D14FF0020816E0DFF8B480404502D1D8
:1003B0004FF003080FE0DFF8AC80404502D14FF06A
:1003C000040808E0DFF8A080404502D14FF005089E
:1003D00001E04FF0060808FA06F848EA0508CCF8EC
:1003E00008804D68D9F80060ED034D4601D51643ED
:1003F00000E096432E604D68DAF80060AD03554684
:1004000001D5164300E096432E604D68DBF800608E
:10041000ED025D4601D5164300E096432E604D681F
:10042000DEF80060AD02754601D5164300E0964344
:100430002E60641C0A681646E2407FF429AFBDE8CE
:10044000F88F00000004014000001110001002406D
:100450000000014000080140000C01400010014074
:100460000014014000180140001C0140C26821EA4C
:1004700002030A4043EA0241016170470AB1016187
:1004800070470904FBE700000148806870470000DE
:100490001000002002488168027811448160704792
:1004A00010000020074810B5016841F010010160FC
:1004B000032000F067F8002000F006F800F024F8B0
:1004C000002010BD0020024070B50D4D04464FF4D1
:1004D0007A712878B1FBF0F00A490968B1FBF0F0B5
:1004E00000F0BEFA48B9102C07D200222146501E57
:1004F00000F028F800206C6070BD012070BD000085
:10050000100000201C0000200C4808B5816941F053
:1005100001018161816901F001010091C16941F02E
:100520008051C161C06900F080500090044841686A
:1005300021F0E06141F00071416008BD001002400F
:1005400000000140F0B40E4B1B680C46C3F30223BD
:10055000C3F10705042D00D90425191D072901D26F
:10056000002300E0DB1E012606FA05F1491E2140AA
:1005700099409E40761E16403143F0BC00F0DDBA33
:100580000CED00E0064900F0070208684FF6FF0393
:10059000184040EA0220034A1043086070470000F8
:1005A0000CED00E00000FA052DE9F0470F460500CC
:1005B00061D0434E306800F00700B84209D230687D
:1005C00020F0070038433060306800F00700B84280
:1005D00051D128683B4C810712D5400703D560688C
:1005E00040F4E06060602878000703D5606840F45C
:1005F000605060606068A96820F0F00008436060A7
:100600002878C00728D06868012810D021680228FF
:1006100010D0890700292EDA616821F00301014317
:100620006160FFF731FF804641F288390DE02168B3
:100630008903EFE78901EDE7FFF726FFA0EB08014B
:10064000494502D90320BDE8F0876068696800F079
:100650000C00B0EB810FEFD1306800F00700B8421A
:100660000BD9306820F0070038433060306800F064
:100670000700B84201D00120E5E72878400705D5FA
:100680006068E96820F4E06008436060287800074B
:1006900006D56068296920F4605040EAC1006060B6
:1006A00000F018F86168084AC1F30311515CC840B2
:1006B0000649086006480068FFF706FF0020C2E709
:1006C0000020024000100240DC1C00081C0000203A
:1006D0001400002012A185B00FC98DE80F0014A0EE
:1006E000144A006804905168134801F00C03042B6D
:1006F00010D0082B0ED1C1F38343C9031DF80300AA
:100700000AD5516804AAC1F34041515C0A4A5043DA
:10071000B0FBF1F005B0704708494843FAE7000024
:1007200002030405060708090A0B0C0D0E0F101032
:10073000010200000010024000127A0000093D0092
:100740002DE9F84F040070D02078C04DC00749D083
:100750006868C0F38100012807D06868C0F3810091
:10076000022809D16868C00306D52868800339D5F6
:1007700060680028E7D035E06068B0F5803F0BD0B6
:1007800010B1B0F5A02F11D0286820F48030286077
:10079000286820F4802002E0286840F48030286037
:1007A000606890B1FFF770FE06460AE0286840F4E2
:1007B00080202860F0E700BFFFF766FE801B6428FA
:1007C00073D828688003F7D50CE0FFF75DFE064676
:1007D00005E000BFFFF758FE801B6428F0D82868AA
:1007E0008003F7D420789A4E80074FF001094FF02C
:1007F000000839D5686810F00C0F07D06868C0F39E
:100800008100022809D16868C00306D428688007DF
:1008100014D52069012808D110E02069B0B1C6F8CC
:100820000090FFF731FE074605E00AE1FFF72CFED6
:10083000C01B0228C4D828688007F7D528686169DA
:1008400020F0F80040EAC10028600DE0C6F8008002
:10085000FFF71AFE074604E0FFF716FEC01B02284A
:1008600023D828688007F7D4207800072CD579484A
:10087000A169D9B1C0F80090FFF706FE074604E071
:10088000FFF702FEC01B02280FD8686A8007F7D561
:1008900071484FF4FA510068B0FBF1F0009000BFCE
:1008A0000098411E0091FAD20EE080E0C0F800806E
:1008B000FFF7EAFD074604E0FFF7E6FDC01B02284C
:1008C00075D8686A8007F7D42078400760D5E86952
:1008D0000027C00008D4E86940F08050E861E8696A
:1008E000012700F0805000905C480168C90513D4CE
:1008F0000168834641F480710160FFF7C5FD8246BF
:1009000006E000BFFFF7C0FDA0EB0A0064284ED848
:10091000DBF80000C005F5D5E06801280AD008B171
:10092000052813D0286A20F001002862286A20F0E8
:10093000040002E0286A40F001002862E06841F209
:10094000883B98B1FFF7A0FD82460BE0286A40F093
:1009500004002862EEE700BFFFF796FDA0EB0A0156
:1009600059455AD8286A8007F6D50CE0FFF78CFD68
:10097000824605E0FFF788FDA0EB0A0159454CD8F7
:10098000286A8007F6D41FB1E86920F08050E8613A
:10099000E06988B36968C1F38101022944D0022863
:1009A000C6F8608004D0FFF76FFD044638E034E0FD
:1009B000FFF76AFD074604E0FFF766FDC01B02284B
:1009C0002BD828688001F7D4206AB0F5803F05D184
:1009D0006868A16820F4003008436860D4E9080121
:1009E0000843696821F4741108436860C6F8609090
:1009F000FFF74AFD044606E025E000BFFFF744FD8F
:100A0000001B022809D828688001F7D51BE000BF29
:100A1000FFF73AFD001B022802D90320BDE8F88F3A
:100A200028688001F4D40EE00128F7D06868226AB3
:100A300000F48031914204D1616A00F47010884260
:100A400001D00120EAE70020E8E7000000100240A2
:100A500000004242800442421C000020007000401E
:100A600010B5401EB0F1807F01D3012010BD4FF0C2
:100A7000E02460610F21601700F05FF80020A061A2
:100A800007202061002010BDFEE7FEE7704710B58B
:100A9000FFF700FD00F062FF012803D0BDE8104021
:100AA00000F01ABE10BD10B590B028216846FFF7BF
:100AB000C2FB14210AA8FFF7BEFB02200090012010
:100AC000049010200024059007946846FFF738FE34
:100AD0000F20CDE90A040C940D9400210AA80E946D
:100AE000FFF762FD10B010BD70470000044C1021EC
:100AF0002046FFF7BBFC052000F0D2FCF7E7000022
:100B000000180140044C20212046FFF7AFFC0A20CA
:100B100000F0C6FCF7E7000000180140054C4FF458
:100B20007A7540212046FFF7A1FC284600F0B8FC6A
:100B3000F7E7000000180140FEE70907090E00284A
:100B400004DB00F1E02080F80014704700F00F0093
:100B500000F1E02080F8141D704702E008C8121F61
:100B600008C1002AFAD170477047002001E001C196
:100B7000121F002AFBD170470EB5094A0120A2F5C9
:100B800000718DE807000023802206A1084800F0CC
:100B9000BBFE08490860BDE80E4000F025BD00001E
:100BA0009402002073746172745F7461736B00004F
:100BB000811200080000002030B585B0FFF772FCFC
:100BC000FFF771FF002415480094019402940394E8
:100BD000816941F040018161816901F04001049126
:100BE000816941F00401816180690D4D00F00400CC
:100BF0000490002270212846FFF740FC70200090EE
:100C00000120CDE901040220039069462846FFF740
:100C100031FBFFF7B1FF05B0002030BD00100240EE
:100C2000001801402DE9F0411E4C0F460546E668CC
:100C30002068001D00F070FB38B9206890F82C1077
:100C400001208840216981432161681C15D1A7B129
:100C5000154922684868906023688268DA602268D3
:100C60008368121D5A602268121D826020684161EB
:100C70000868401C0860BDE8F08120683544B54232
:100C80004560216805D2E06BBDE8F041091D00F028
:100C90007BBBA06B091D00F077FBA06A8542EAD2FE
:100CA000A562E8E720000020101100202DE9F041A6
:100CB000054600F08DFB364CA068401CA060206803
:100CC000344F10B1606940B32DE02560A068012861
:100CD00029D1002606EB860007EB800000F046FBDA
:100CE000761C052EF6D32B48643000F03FFB2948D4
:100CF000783000F03BFB27488C3000F037FB25486C
:100D0000A03000F033FB2348B43000F02FFB214823
:100D10006430A0631430E06305E02068E96AC06ACB
:100D2000884200D82560606A0121401C6062E86A40
:100D3000226981401143216100EB800007EB8000B4
:100D40004068A8608168E9608268291D51608160FF
:100D5000E86A00EB800007EB8001696157F820101A
:100D6000491C47F8201000F041FB606900280CD0B6
:100D70002068E96AC06A884207D207494FF080506C
:100D80000860BFF34F8FBFF36F8FBDE8F0810000A5
:100D9000200000205C10002004ED00E038B500F0D9
:100DA00017FB0E4C2068A8B90D4800F0DFFA0C487C
:100DB000143000F0DBFA0A48E06014302061084B80
:100DC0000020843B009003F148020C21052000F034
:100DD00099FC2060BDE8384000F008BB60000020AE
:100DE000A811002030B4026C0B46002A0BD0C16859
:100DF0001144C1608468A14201D30168C16030BC64
:100E00001846FFF7FFB930BC704710B5044690F89C
:100E1000490030B1012808D12046BDE8104000F05B
:100E2000EFBA206B00F0ECFAF6E710BD144E154C4B
:100E3000A6F1A0074FF08058DFF84C9012E000BFF9
:100E400000F0C6FAF068C568281D00F065FAA068D1
:100E5000401EA0606068401E606000F0C7FA28462F
:100E6000FFF7D3FF60680028EAD138680128F9D974
:100E7000C9F80080BFF34F8FBFF36F8FF2E7000018
:100E8000FC1000202000002004ED00E00346009844
:100E900029B10260C0E90F31012100F047BC0060B8
:100EA000F8E72DE9F0479946DDE9096480466FF0DF
:100EB0000303206B03EB8202089D104420F0070718
:100EC00061B1002023180A5C83F834200A5C12B157
:100ED000401C1028F6D3002084F84300052D00D3D1
:100EE0000425201DE56200F04CFA04F1180000F022
:100EF00048FA2461C5F105006462A0614A46414692
:100F0000384600F0ABF92060002E00D03460BDE818
:100F1000F087000030B5114900E011460A688242AE
:100F2000FBD34B685C18844203D140681844486086
:100F3000084643681C18944209D1084C143C2468A4
:100F4000A24209D052681A4442600A6812680260DC
:100F5000814200D0086030BD0460F9E788000020BD
:100F600070B5002441600B4D0061914206D8D11A42
:100F70008269914206D2011D286907E09A4203D294
:100F8000994201D3012403E0011DE86800F0FCF957
:100F9000204670BD6000002010B5044600F018FA2D
:100FA000A06B28B15FF0000400F020FA204610BDCD
:100FB0000124F9E770B506460D480D46C068C068C3
:100FC000C468201D00F0A8F994F82400410705D555
:100FD0002A463146204600F0ABF803E000F0FE0060
:100FE00084F824002046216ABDE8704008470000CC
:100FF000600000207FB5324E5AE00098002857DB91
:10100000029C606910B1201D00F086F903A800F071
:10101000B1F8054600980A284AD2DFE800F04905F1
:1010200005282E3D0505282E94F824002A4640F078
:10103000010084F824000199A069019B0144204625
:10104000FFF78EFF38B394F82400410707D50198C5
:10105000A1692A460144204600F06AF803E000F046
:10106000FE0084F82400216A2046884720E014F816
:10107000240F00F0FE0020701AE094F824002B46A4
:1010800040F0010084F824000198A06141191A463B
:101090002046FFF765FF0BE094F82400810703D496
:1010A000204600F0ADF903E000F0FE0084F82400D3
:1010B00000226946306800F083FB00289DD17FBD87
:1010C00060000020F8B50D46064600F0C3FA6846F9
:1010D00000F050F80446009810B100F049FDF8BD4A
:1010E0001148ADB101690968D9B10025311B2A4603
:1010F000006800F0B3F900F03BFD0028EFD10B4988
:101100004FF080500860BFF34F8FBFF36F8FF8BD73
:10111000A642EBD800F02CFD21463046FFF74AFFEF
:10112000F8BD0125E2E700006000002004ED00E0CA
:1011300070B516460C46054604E0A869296A0444C1
:1011400028468847A8692346011932462846FFF7F2
:1011500007FF0028F1D170BD0548816B096821B1F6
:10116000816BC9680968816270474FF0FF31FAE707
:10117000200000202DE9F041064600F0FDFB0E4C5A
:101180000546A068854214D24FF0FF3704E0C068DE
:1011900039460068FFF70EFFE06801680029F6D1C4
:1011A0002169C4E90310012030602846A560BDE82C
:1011B000F0810020F8E7000060000020BF2080F3ED
:1011C0001188BFF34F8FBFF36F8FFEE7074CE068C6
:1011D000016841B1C0680021D0F80000FFF772FF3C
:1011E000FFF708FFF3E701210020F7E76000002088
:1011F0002DE9F041044600F0EBF894F9455004F174
:10120000240609E0606A48B1304600F04DFC08B1A0
:1012100000F0B4F96D1E6DB2002DF3DC4FF0FF3617
:1012200084F8456000F0E2F800F0D2F894F94450F8
:1012300004F1100709E0206948B1384600F034FC99
:1012400008B100F09BF96D1E6DB2002DF3DC84F83F
:101250004460BDE8F04100F0C9B8000010B5031FBC
:101260004FF080741C601B1F21F001011960191FD1
:10127000024B0B60143940380A6010BDBD110008E4
:101280003EB500F0A5F8174A0220A2F500718DE8DE
:1012900007000023802214A1154800F035FB154CEF
:1012A000154A00236060A2F5007103208DE8070055
:1012B000802212A1134800F027FB134AA060A2F578
:1012C000007104208DE80700002380220FA111483F
:1012D00000F01AFBE060002000F0FAF8BDE83E40A4
:1012E00000F084B8E00400205461736B310000000A
:1012F000ED0A0008000000202C0700205461736BE9
:1013000032000000050B0008780900205461736B5F
:10131000330000001D0B0008D0E9013201699A601A
:10132000D0E901235A604A68824201D182684A604A
:10133000002202610868401E0860086870470000CB
:10134000034B036003F14C0008608020106070477D
:10135000C4090020044B036003F14C0008604FF403
:101360008070106070470000100C002000F1080130
:101370004FF0FF32C0E90112C1600161002101603C
:10138000704700210161704730B50B685A1C02D0CC
:1013900000F1080202E0026904E022465468256870
:1013A0009D42FAD953684B6099608A605160086128
:1013B0000168491C016030BD42684A6093688B60D7
:1013C00093685960916008610168491C0160704729
:1013D000BF2080F31188BFF34F8FBFF36F8F024898
:1013E0000168491C016070479000002003490868AB
:1013F000401E086001D180F31188704790000020E2
:1014000070B500281BD0A0F108046068002816DA27
:101410002168002913D120F00040606000F01AF923
:10142000074D60686968084468602046FFF772FDF0
:101430002869401C2861BDE8704000F099BB70BD70
:10144000740000204FF0E020002101618161024919
:1014500041610721016170473F19010070B51546D0
:101460000E460446FFF7B4FF94F944100020491CCF
:1014700001D184F8440094F94510491C01D184F845
:101480004500FFF7B3FFA06B28B92A46314604F1A7
:10149000240000F089F82046BDE87040FFF7A8BEA0
:1014A00010B5020009D000F0D5F800211046FFF772
:1014B000B9FB00F05DFB002807D104494FF08050D4
:1014C0000860BFF34F8FBFF36F8F10BD04ED00E0D6
:1014D00070B50546FFF77CFF214C05B92568281D2E
:1014E000FFF71AFF58B9E86A1E4A00EB800152F86C
:1014F000211021B901218140206988432061A86A17
:1015000018B105F11800FFF707FF606A401C606220
:101510002068854208D11348291DA030FFF74CFFF1
:101520006068401C606004E0A068401EA060FFF797
:1015300013FEFFF75BFF2068854202D02846FFF7C5
:1015400064FC606900280AD02068854207D10649FA
:101550004FF080500860BFF34F8FBFF36F8F70BDA7
:10156000200000205C10002004ED00E002490A6A1F
:101570000260C968416070472000002001490120D5
:10158000C86170472000002010B50C460549096865
:101590001831FFF7F9FE2046BDE810400121FFF7A2
:1015A00041BB000020000020F0B40C460D49436808
:1015B0000D68EB619D680E6835620D689E68183590
:1015C00075600D6818359D60096888620168491C5E
:1015D00001600AB14FF0FF342046F0BC1146FFF71E
:1015E00021BB00002000002030B587B00024039408
:1015F00005AA04A903A80494FFF7A2FEDDE90301EC
:101600000094CDE9011000230EA11048059A00F0C6
:101610007BF90F4DE86290B100F036FB01280ED146
:10162000BF2080F31188BFF34F8FBFF36F8F4FF050
:10163000FF30A86201206861EC6000F035F8286B8B
:1016400007B030BD49444C45000000002D0E000895
:10165000200000200248416B491C41637047000094
:10166000200000200E48416B11B10121C16170477B
:101670000021C16101690B4AB1FA81F1C1F11F0179
:1016800001EB810102EB810101F108034A68526814
:101690004A609A4201D152684A60D168016070473D
:1016A000200000205C100020094810B5016841F4BA
:1016B0007F010160016841F07F410160FFF7C2FED8
:1016C000044900200860FEF751FD002010BD000015
:1016D00020ED00E09000002010B5BF2080F31188BD
:1016E000BFF34F8FBFF36F8F00F04CF918B104496F
:1016F0004FF080500860002080F3118810BD00007A
:1017000004ED00E038B50024049D60B15BB10AB17E
:1017100009B908E039B91C46012384F846302B4644
:101720000094FFF7B3FB204638BD00002DE9F041DF
:101730000F4604004FF001063CD0E06BC8B3B51E65
:10174000B5FBF0F1206C814234D3FFF741FED4E9C0
:101750000F20216802FB0011A1600021A163216814
:1017600061600A46D4E90F01401E00FB01212046BA
:10177000E16000F8445F457004F110004FB1FFF7DD
:10178000F5FD04F12400FFF7F1FD00BFFFF72EFE89
:1017900011E021690029F9D000F086F90028F5D080
:1017A00006494FF080500860BFF34F8FBFF36F8F33
:1017B000ECE7FFE700263046BDE8F08104ED00E0ED
:1017C0002DE9F7470026DFF8E48083B08A46044617
:1017D000B1464FF0805700BFFFF7FAFDA56BC5B1CA
:1017E00051462046FFF7FEFA6D1EA563206950B1F1
:1017F00004F1100000F058F928B1C8F80070BFF3E8
:101800004F8FBFF36F8FFFF7F1FD012006B0BDE8EA
:10181000F087059808B11EB106E0FFF7E7FD27E065
:101820006846FFF7A3FE0126FFF7E0FDFFF712FF72
:10183000FFF7CEFD94F94400401C01D184F8449098
:1018400094F94500401C01D184F84590FFF7CEFD86
:1018500005A9684600F02CF8002820460AD0FFF7BA
:10186000C7FC00F085F92046FFF796FB0028B3D0AF
:101870000020CBE7FFF790FB90B104F1240005991D
:10188000FFF782FE2046FFF7B3FC00F071F9002855
:10189000A2D1C8F80070BFF34F8FBFF36F8F9BE7E3
:1018A0002046FFF7A5FC00F063F995E704ED00E0A2
:1018B0002DE9F0410C460546FFF78AFD114EF2680E
:1018C0006B682168D01A4F1C0AD02F68D6F820C048
:1018D0000026674506D0934204D8012526600BE018
:1018E000002509E0814205D9081A20602846FFF743
:1018F0003DFEF5E701252660FFF778FD2846BDE8A7
:10190000F0810000200000202DE9F04F85B09846BE
:10191000DDE90F540E9F91468A4683460026C4B1E6
:10192000BDB14C212046FEF786FC0220256384F8D9
:1019300049000DF1040C04A800978CE851004346BF
:101940004A4651465846FFF7ACFA2046FFF7AEF933
:1019500000E00496049805B0BDE8F08F05484169A1
:1019600019B1406B18B10020704701207047022068
:1019700070470000200000200148C0687047000048
:10198000200000202DE9F041454C0026606B28B175
:10199000A069401CA0613046BDE8F081E5686D1C7F
:1019A000E56008D1A06BE16BA163E063206A401C95
:1019B0002062FFF7D1FBA16A3A488D420FD34FF066
:1019C000000EA16B096839B1A16BC968C9684A6882
:1019D000954212D2A26202E04FF0FF31A16221686B
:1019E000C96A01EB810150F82100012800D90126C4
:1019F000E0690028CFD00126CDE7D1E902724B691A
:101A0000BA60D1E902277A605F680A1D974201D166
:101A1000CF685F60C1F814E01F687F1E1F60D1F8B7
:101A200028C0BCF1000F15D0D1E907379F60D1E97C
:101A300007377B60DCF8047001F118039F4202D184
:101A40000B6ACCF80430C1F828E0DCF800305B1EEB
:101A5000CCF80030CB6A0127D4F810C09F4047EA89
:101A60000C07276103EB830300EB83035B688B6048
:101A70009F68CF609F687A609A60CA6A02EB8202B0
:101A800000EB82034B6150F822305B1C40F822309F
:101A9000C96A2268D26A914293D9012691E700006F
:101AA000200000205C10002070B5C068C068D0E93C
:101AB0000732816A9A60D0E907235A604B6800F1C7
:101AC0001802934201D1036A4B60002383620C68C1
:101AD000641E0C6024494D6B01249DB1234D6B683D
:101AE000C3619E6806629E6872609A6085622A6819
:101AF000521C2A60C06A0A68D26A904232D9012018
:101B0000CC6170BDD0E902654269B560D0E902568A
:101B100075605668051DAE4201D1C66856604361C6
:101B200013685B1E1360C26A0E6904FA02F3334342
:101B30000B610E4B02EB82028C3B03EB820252687C
:101B400082609668C660966875609560C26A02EBAE
:101B5000820203EB8205456153F822506D1C43F865
:101B60002250C7E7002070BD20000020E8100020B0
:101B70002DE9F04100242746FFF72AFC3F4D686B12
:101B8000401E6863686B002872D1A8683C4B002631
:101B90004FF00108F0BB6BE0D868C468D4E90721B6
:101BA000A06A9160D4E907125160426804F11801FB
:101BB0008A4201D1216A4160A6620168491E016022
:101BC000D4E9022160699160D4E90212516042684F
:101BD000211D8A4201D1E268426066610268521E9C
:101BE0000260E26AD5F810C008FA02F040EA0C0080
:101BF000286102EB8200224A8C3A02EB80004068A6
:101C0000A060D0F808C0C4F80CC0D0F808C0CCF868
:101C1000041000E012E08160E06A00EB800002EB5B
:101C20008001616152F82010491C42F82010E06ADE
:101C30002968C96A884201D3C5F81C801868002841
:101C4000AAD10CB1FFF788FAAC693CB1FFF79AFE54
:101C500008B1C5F81C80641EF8D1AE61E86938B1DE
:101C60000849012738070860BFF34F8FBFF36F8F14
:101C7000FFF7BCFB3846BDE8F081000020000020E3
:101C8000E810002004ED00E030B587B00024FFF735
:101C900085F80E4D2868A8B100200390049005AA8D
:101CA00004A903A8FFF756FBDDE9032104208DE812
:101CB0000700002306A10848059AFFF725FE686083
:101CC00000B1012407B0204630BD000060000020B4
:101CD000546D722053766300CD110008000000009F
:101CE0000000000001020304060708090C1D00089B
:101CF00000000020940000005A0B0008A01D0008FE
:101D0000940000203C1500006A0B00080000000051
:101D100000000000000000000000000001000000C2
:101D200010000000000000000024F400000000008B
:101D300000000000000000000000000000000000A3
:101D40000000000000000000000000000000000093
:101D5000000000000000000000000000040000007F
:101D60000000000000000000000000000000000073
:101D70000000000000000000000000000000000063
:101D80000000000000000000000000000000000053
:101D9000000000000000000000000000AAAAAAAA9B
:0400000508000131BD
:00000001FF
