:020000040800F2
:1000000098490020E101000867100008F90F000876
:100010006510000871020008C51400080000000007
:10002000000000000000000000000000490100087E
:1000300073020008000000008D010008E5100008B0
:10004000FB010008FB010008FB010008FB010008A0
:10005000FB010008FB010008FB010008FB01000890
:10006000FB010008FB010008FB010008FB01000880
:10007000FB010008FB010008FB010008FB01000870
:10008000FB010008FB010008FB010008FB01000860
:10009000FB010008FB010008FB010008FB01000850
:1000A000FB010008FB010008FB010008FB01000840
:1000B000FB010008FB010008FB010008FB01000830
:1000C000FB010008FB010008FB010008FB01000820
:1000D000FB010008B9140008FB010008FB0100083F
:1000E000FB010008FB010008FB010008FB01000800
:1000F000FB010008FB010008FB010008FB010008F0
:10010000FB010008FB010008FB010008FB010008DF
:10011000FB010008FB010008FB010008FB010008CF
:10012000FB010008FB010008FB010008FB010008BF
:10013000DFF810D000F08AF800480047E115000809
:10014000AFF3008098490020224B19680868B0E896
:10015000F00F80F30988BFF36F8F4FF0000080F33A
:1001600011884EF00D0E7047000000000648006830
:10017000006880F3088862B661B6BFF34F8FBFF3A3
:100180006F8F00DF00BF00BF08ED00E0EFF30980D4
:10019000BFF36F8F0F4B1A6820E9F00F106008B59E
:1001A0004FF0BF0080F31188BFF34F8FBFF36F8F05
:1001B00001F0D2FD4FF0000080F31188BDE8084047
:1001C00019680868B0E8F00F80F30988BFF36F8FF3
:1001D000704700BF24000020EFF305807047000047
:1001E0000648804706480047FEE7FEE7FEE7FEE7D1
:1001F000FEE7FEE7FEE7FEE7FEE7FEE73F11000849
:100200003101000840EA01039B0703D009E008C957
:10021000121F08C0042AFAD203E011F8013B00F8CB
:10022000013B521EF9D27047D2B201E000F8012B17
:10023000491EFBD270470022F6E710B513460A4666
:1002400004461946FFF7F0FF204610BD064C074D47
:1002500006E0E06840F0010394E807009847103496
:10026000AC42F6D3FFF768FF98240008B8240008D2
:10027000FEE7704710B590F821100022022905D042
:100280000421816380F82020012010BD01680B68E3
:1002900023F00E030B6001680B6823F001030B6071
:1002A00090F84030C46B012101FA03F3636080F8D9
:1002B000211080F82020104610BD00002DE9F05FCD
:1002C00090F821100024022903D004218163012425
:1002D00085E001680A6822F00E020A6001680A6877
:1002E00022F001020A603F4E3E4FB215DFF8F4C023
:1002F000DFF8F090DFF8ECA0DFF8E8B0DFF8E4E03A
:100300000168783F13011502ACF1640CA9F15009A2
:10031000AAF13C0AABF1280BAEF1140E4FF4801891
:10032000B14227D9B9420ED0614512D049451DD0FE
:10033000514518D0594518D0714501D1424615E0B4
:10034000294EB14201D1012210E0274E1436B142AC
:1003500001D110220AE0244E2836B14206D0224AAA
:100360003C32914201D11A4600E02A461E49091F3B
:100370000A602BE0B94213D0614517D0494522D01D
:1003800051451DD059451DD0714501D142461AE055
:10039000B14202D14FF0807215E0134EB14201D14B
:1003A000012210E0104E1436B14201D110220AE0B1
:1003B0000D4E2836B14206D00B4A3C32914201D153
:1003C0001A4600E02A46074980394A60012180F830
:1003D0002110002180F82010416B01B18847204690
:1003E000BDE8F09F80000240080402402DE9F84F6C
:1003F000DFF8C891002409F1040A0AF1040B23462E
:100400000F270BF1040ED1E00125A54006EA0502F5
:10041000AA4276D1DFF8A8C14E68A6EB0C08664563
:100420002BD00DDC032E34D005DC36B3012E19D0D1
:10043000022E2FD11BE0112E16D0122E2AD119E038
:10044000B8F5881F19D006DCB8F5803F15D0B8F58F
:10045000801F1FD111E0B8F5001F0ED0B8F5041FA2
:1004600018D10AE0CB6815E0CB681B1D12E0CB6801
:1004700008330FE0CB680C330CE08B682BB1012BF9
:100480004FF0080303D0456104E0042302E0056156
:1004900000E00023FF2A01D8064601E000F104062F
:1004A0004FEA840501D9A5F12005D6F8008007FAA6
:1004B00005FC28EA0C0803FA05F548EA0508C6F821
:1004C00000804D68ED0070D53E4DAE6946F00106E6
:1004D000AE61AD6924F0030605F0010500953A4DC3
:1004E00006EB050CDCF80850A607360F07FA06F8ED
:1004F00025EA0805DFF8D480404503D14FF0000815
:1005000025E052E0DFF8C880404502D14FF00108F5
:100510001DE0DFF8C080404502D14FF0020816E030
:10052000DFF8B480404502D14FF003080FE0DFF858
:10053000AC80404502D14FF0040808E0DFF8A0800D
:10054000404502D14FF0050801E04FF0060808FAD7
:1005500006F848EA0508CCF808804D68D9F800602C
:10056000ED034D4601D5164300E096432E604D68DD
:10057000DAF80060AD03554601D5164300E0964316
:100580002E604D68DBF80060ED025D4601D5164334
:1005900000E096432E604D68DEF80060AD027546BF
:1005A00001D5164300E096432E60641C0A68164687
:1005B000E2407FF429AFBDE8F88F0000000401405D
:1005C000000011100010024000000140000801402E
:1005D000000C0140001001400014014000180140CF
:1005E000001C01400AB1016170470904FBE70000EB
:1005F00001488068704700001400002002488168AC
:10060000027811448160704714000020074810B53B
:10061000016841F010010160032000F075F800202E
:1006200000F006F800F024F8002010BD0020024081
:1006300070B50D4D04464FF47A712878B1FBF0F097
:100640000A490968B1FBF0F000F0ECFA48B9102C47
:1006500007D200222146501E00F036F800206C60C0
:1006600070BD012070BD000014000020200000209B
:100670000C4808B5816941F001018161816901F08F
:1006800001010091C16941F08051C161C06900F070
:10069000805000900448416821F0E06141F0007111
:1006A000416008BD0010024000000140002809DB45
:1006B00000F01F02012191404009800000F1E0207C
:1006C000C0F8001170470000F0B40E4B1B680C46D8
:1006D000C3F30223C3F10705042D00D90425191D16
:1006E000072901D2002300E0DB1E012606FA05F1EE
:1006F000491E214099409E40761E16403143F0BC71
:1007000000F0EABE0CED00E0064900F007020868C0
:100710004FF6FF03184040EA0220034A10430860E6
:10072000704700000CED00E00000FA052DE9F047ED
:100730000F46050061D0434E306800F00700B84214
:1007400009D2306820F0070038433060306800F08C
:100750000700B84251D128683B4C810712D54007A9
:1007600003D5606840F4E06060602878000703D536
:10077000606840F4605060606068A96820F0F00034
:10078000084360602878C00728D06868012810D026
:100790002168022810D0890700292EDA616821F02B
:1007A000030101436160FFF723FF804641F288396E
:1007B0000DE021688903EFE78901EDE7FFF718FFF6
:1007C000A0EB0801494502D90320BDE8F087606825
:1007D000696800F00C00B0EB810FEFD1306800F0D9
:1007E0000700B8420BD9306820F00700384330606A
:1007F000306800F00700B84201D00120E5E7287812
:10080000400705D56068E96820F4E060084360604F
:100810002878000706D56068296920F4605040EA0E
:10082000C100606000F038F86168084AC1F3031144
:10083000515CC8400649086006480068FFF7F8FEAA
:100840000020C2E70020024000100240802400087F
:10085000200000201800002004480549006849686D
:10086000044AC1F30221515CC840704720000020B7
:1008700000100240902400080448054900684968B7
:10088000044AC1F3C221515CC840704720000020D7
:10089000001002409024000812A185B00FC98DE815
:1008A0000F0014A0144A006804905168134801F026
:1008B0000C03042B10D0082B0ED1C1F38343C903C2
:1008C0001DF803000AD5516804AAC1F34041515CE8
:1008D0000A4A5043B0FBF1F005B07047084948435D
:1008E000FAE7000002030405060708090A0B0C0DCD
:1008F0000E0F1010010200000010024000127A00DA
:1009000000093D002DE9F84F040070D02078C04D5B
:10091000C00749D06868C0F38100012807D0686823
:10092000C0F38100022809D16868C00306D5286891
:10093000800339D560680028E7D035E06068B0F5FD
:10094000803F0BD010B1B0F5A02F11D0286820F453
:1009500080302860286820F4802002E0286840F475
:1009600080302860606890B1FFF742FE06460AE0DA
:10097000286840F480202860F0E700BFFFF738FEC9
:10098000801B642873D828688003F7D50CE0FFF734
:100990002FFE064605E000BFFFF72AFE801B6428F5
:1009A000F0D828688003F7D420789A4E80074FF05B
:1009B00001094FF0000839D5686810F00C0F07D016
:1009C0006868C0F38100022809D16868C00306D4B2
:1009D0002868800714D52069012808D110E0206913
:1009E000B0B1C6F80090FFF703FE074605E00AE144
:1009F000FFF7FEFDC01B0228C4D828688007F7D582
:100A00002868616920F0F80040EAC10028600DE024
:100A1000C6F80080FFF7ECFD074604E0FFF7E8FDAD
:100A2000C01B022823D828688007F7D42078000745
:100A30002CD57948A169D9B1C0F80090FFF7D8FD4D
:100A4000074604E0FFF7D4FDC01B02280FD8686AF0
:100A50008007F7D571484FF4FA510068B0FBF1F008
:100A6000009000BF0098411E0091FAD20EE080E095
:100A7000C0F80080FFF7BCFD074604E0FFF7B8FDB3
:100A8000C01B022875D8686A8007F7D42078400711
:100A900060D5E8690027C00008D4E86940F08050BC
:100AA000E861E869012700F0805000905C48016827
:100AB000C90513D40168834641F480710160FFF7D2
:100AC00097FD824606E000BFFFF792FDA0EB0A000B
:100AD00064284ED8DBF80000C005F5D5E068012891
:100AE0000AD008B1052813D0286A20F00100286236
:100AF000286A20F0040002E0286A40F00100286221
:100B0000E06841F2883B98B1FFF772FD82460BE046
:100B1000286A40F004002862EEE700BFFFF768FD96
:100B2000A0EB0A0159455AD8286A8007F6D50CE08F
:100B3000FFF75EFD824605E0FFF75AFDA0EB0A01D4
:100B400059454CD8286A8007F6D41FB1E86920F0CF
:100B50008050E861E06988B36968C1F381010229C6
:100B600044D00228C6F8608004D0FFF741FD044657
:100B700038E034E0FFF73CFD074604E0FFF738FDBE
:100B8000C01B02282BD828688001F7D4206AB0F552
:100B9000803F05D16868A16820F400300843686090
:100BA000D4E908010843696821F4741108436860B6
:100BB000C6F86090FFF71CFD044606E025E000BF84
:100BC000FFF716FD001B022809D828688001F7D519
:100BD0001BE000BFFFF70CFD001B022802D9032019
:100BE000BDE8F88F28688001F4D40EE00128F7D022
:100BF0006868226A00F48031914204D1616A00F48D
:100C00007010884201D00120EAE70020E8E70000E8
:100C100000100240000042428004424220000020B6
:100C20000070004010B5401EB0F1807F01D301205C
:100C300010BD4FF0E02460610F21601700F04CFC04
:100C40000020A06107202061002010BD7047704780
:100C5000F8B5026804461068D168536910F00F0FA8
:100C60004FF0000553D003F0010601F490773743AD
:100C70005FD0C20705D0CA0503D5226C42F001023D
:100C80002264420705D5DA0703D0226C42F0020243
:100C90002264820705D5DA0703D0226C42F00402F1
:100CA0002264020707D501F02002324303D0226CF0
:100CB00042F008022264226C002A34D0800604D557
:100CC000880602D5204600F00DFB20684069216CA3
:100CD000C0F38010090700D430B3204600F0EAFAD0
:100CE0002068416949061BD5416921F040014161F5
:100CF000A06BA8B158494163A06BFFF7DFFA002849
:100D000011D0A06B416B01B0BDE8F04008478306ED
:100D10000FD58B060DD52046BDE8F84000F0E2BAAD
:100D20002046FFF794FFF8BD2046FFF790FF2564AB
:100D3000F8BD266B2023012E52D1C60650D5CE0613
:100D40004ED5106850680090506940062AD5A16BB6
:100D5000086840680004000CEAD0A68D8642E7D9F6
:100D6000E0858869202818D0D06820F48070D06091
:100D70002068416921F0010141612068416921F049
:100D80004001416184F83E3025632068C16821F04C
:100D90001001C160A06BFFF76DFAA08DE18D401AC4
:100DA00081B219E0A08DE18D401A81B2E08D00285A
:100DB000BED00029BCD0D06820F49070D0602068EC
:100DC000426922F00102426184F83E3025632068C6
:100DD000C26822F01002C2602046FFF737FFF8BD5C
:100DE00005062BD50D0629D594F83D002128F6D10E
:100DF000A068B0F5805F01D12069B0B1206A411CC4
:100E00002162216800784860E08C401E0004000CDC
:100E1000E084E4D12068C16821F08001C1602068CD
:100E2000C16841F04001C160F8BD206A0088C0F38C
:100E300008005060206A801C2062E5E74006F3D578
:100E40004806F1D5D168204621F04001D16084F8F0
:100E50003D3000F0D0F8F8BDA512000870B50400D0
:100E600004D094F83D00002510B106E0012070BDCB
:100E700084F83C50204600F023F8242084F83D00FC
:100E80002068C16821F40051C160204600F086FA54
:100E90002068016921F4904101612068416921F0D5
:100EA0002A0141612068C16841F40051C160256494
:100EB000202084F83D0084F83E00002070BD000032
:100EC00030B585B000240094019402940394006826
:100ED000184988422CD11848816941F480418161C8
:100EE000816901F480410491816941F004018161CB
:100EF0008069124D00F0040004904FF400700090DF
:100F0000022001900320039069462846FFF76EFAFD
:100F10002815CDE90004694628460294FFF766FAD1
:100F2000002211462520FFF7CFFB2520FFF7BEFB4F
:100F300005B030BD003801400010024000080140FB
:100F4000704700002DE9F843044690F83D001F4625
:100F500016460D4620284CD1C5B1BEB194F83C00D0
:100F6000012846D0012084F83C004FF00008C4F866
:100F70004080212084F83D00FFF73AFBA68481469B
:100F8000E684A068B0F5805F03D004E00120BDE8EE
:100F9000F883206928B12E465FF0000584F83C8074
:100FA0000EE00026FAE78021204600F053FAA0B9AF
:100FB000AEB116F8010B21684860E08C401EE08459
:100FC000E08C4B464FF0000200970028EBD14FF029
:100FD0004001204600F03EFA30B10320D7E735F853
:100FE000020BC0F30800E6E7202084F83D00002053
:100FF000CDE70220CBE77047FEE7000030B585B0B3
:10100000002416480094019402940394816941F0ED
:1010100040018161816901F040010491816941F0E1
:101020000401816180690E4D00F0040004900122EA
:1010300017212846FFF7D6FA002268212846FFF735
:10104000D1FA7F2000900120CDE901040220039015
:1010500069462846FFF7CAF905B030BD00100240C6
:1010600000180140FEE770471CB500F07BFD1349F6
:101070000220CDE900010023802211A1124801F0D5
:1010800041F80E490320091DCDE90001002380220B
:101090000EA1104801F036F8084904200831CDE9C6
:1010A0000001002380220CA10D4801F02BF8002044
:1010B00000F0B6FDBDE81C4000F062BD0400002059
:1010C0005461736B31000000411100085461736B6F
:1010D00032000000D11100085461736B330000002E
:1010E0001512000810B5FFF789FA01F039F8012848
:1010F00003D0BDE8104000F069BE10BD10B590B03F
:1011000028216846FFF797F814210AA8FFF793F8FB
:1011100002200090012004901020002405900794E4
:101120006846FFF7EFFB0F20CDE90A040C940D94FD
:1011300000210AA80E94FFF7F9FA10B010BD70470D
:10114000104C4FF0FF3540F6B8364FF47A770EA0CA
:1011500000F0BAF92946206900F038FF11A000F02C
:10116000B3F9304600F0E8F912A000F0ADF9002321
:101170001A461946206900F0ADFE384600F038FDE9
:10118000E5E70000000000205461736B31206973B3
:101190002074616B696E672042696E6172790D0A15
:1011A000000000005461736B312052756E6E696EE1
:1011B000670D0A005461736B31206973206769768B
:1011C000696E672042696E6172790D0A0000000045
:1011D00040F2DC544FF47A7506A000F075F9204611
:1011E00000F0AAF907A000F06FF9284600F000FD12
:1011F000F2E700005461736B322052756E6E696EB7
:10120000670D0A007461736B32206973206F766515
:10121000720D0A00104C4FF0FF3540F6B8364FF40F
:101220007A770EA000F050F92946206900F0CEFE32
:1012300011A000F049F9304600F07EF912A000F04C
:1012400043F900231A461946206900F043FE384648
:1012500000F0CEFCE5E70000000000207461736B35
:10126000332069732074616B696E672042696E6117
:1012700072790D0A000000007461736B332072757F
:101280006E6E696E670D0A007461736B332069734B
:1012900020676976696E672042696E6172790D0A0E
:1012A0000000000010B5406A0021C185C184FFF72D
:1012B000CEFC10BD0168CA6822F49072CA60016851
:1012C0004A6922F001024A61016B012904D10168D7
:1012D000CA6822F01002CA60202180F83E10002166
:1012E0000163704708B590F83E10222901D0022012
:1012F00008BD82684FF480539A4201D1016921B13F
:10130000816A9A421BD04AB10AE00268816A526837
:10131000C2F308020A80816A891C08E0026972B17E
:101320000268526802F07F020A70816A491C816279
:10133000C18D491E0904090CC18503D019E002685A
:101340005268F1E70168CA6822F02002CA600168A9
:10135000CA6822F48072CA6001684A6922F00102F8
:101360004A61202180F83E10016B012903D0FFF76C
:10137000E7FD002008BD002101630168CA6822F072
:101380001002CA6001680A68D20602D50A68496874
:101390000091818DFFF75AFCEBE7000070B5044621
:1013A00000680169E26821F440511143016121693B
:1013B000A0680843616908432168CA6841F20C6368
:1013C0009A430243CA6020684169A26921F44071CE
:1013D000114341611E492068884202D1FFF74CFA4F
:1013E00001E0FFF739FA00EBC00101EB0012606881
:1013F00064218000B2FBF0F3B3FBF1F36FF0180649
:101400007343B2FBF0F5B2FBF0F605EB8305322334
:1014100003EB0515B5FBF1F5B6FBF1F605F0F005AC
:1014200005EB0615B2FBF0F6B2FBF0F0B0FBF1F005
:101430006FF01802504306EB800003EB0010B0FB86
:10144000F1F0216800F00F002844886070BD0000B2
:10145000003801402DE9F041984617460E460446F3
:10146000069D1DE0681C1BD02DB1FFF7C1F8A0EB55
:101470000800A84214D92068C16821F4D071C16065
:101480002068416921F001014161202084F83D007C
:1014900084F83E00002084F83C000320BDE8F08181
:1014A0002068006836EA000004D00020B842D9D095
:1014B0000020F3E70120F9E70148FFF7C9BB00006E
:1014C00088000020FEE70000014A024900F023B82E
:1014D00051150008840000200907090E002804DBCC
:1014E00000F1E02080F80014704700F00F0000F1D8
:1014F000E02080F8141D704702E008C8121F08C1E0
:10150000002AFAD170477047002001E001C1121F84
:10151000002AFBD170472DE9F04116460F460446DC
:10152000002503E03946B047641C6D1C2078002874
:10153000F8D12846BDE8F081044948430921B0FBB1
:10154000F1F000BF401EFCD27047000040190100BE
:1015500013B54FF6FF73012269460248FFF7F2FC0C
:1015600000981CBD880000201CB50322002101202A
:1015700000F042FC0C4C206110B10CA0FFF7A4FF5E
:1015800000231A461946206900F0A4FC06490120F0
:10159000CDE90001002380220DA1104800F0B2FD2A
:1015A000BDE81C4000F0A8BB0000002073656D7012
:1015B000686F72655F68616E646C652063726561F7
:1015C0007465207375636365737321210D0A0000D0
:1015D00053746172745F5461736B0000691000088A
:1015E00010B5FFF713F8FFF789FDFFF707FD0B486C
:1015F00009490C2201604FF41651416000218160BD
:10160000C160C0E904128161C161FFF727FCFFF7E7
:10161000ABFF002010BD0000003801408800002012
:101620002DE9F0411E4C0F460546E6682068001D76
:1016300000F052FA38B9206890F82C100120884048
:10164000216981432161681C15D1A7B11549226820
:101650004868906023688268DA6022688368121D97
:101660005A602268121D8260206841610868401C2F
:101670000860BDE8F08120683544B54245602168C6
:1016800005D2E06BBDE8F041091D00F046BAA06B41
:10169000091D00F042FAA06A8542EAD2A562E8E795
:1016A00024000020800100202DE9F041054600F0D3
:1016B00059FA364CA068401CA0602068344F10B125
:1016C000606940B32DE02560A068012829D100267B
:1016D00006EB860007EB800000F011FA761C052E61
:1016E000F6D32B48643000F00AFA2948783000F02D
:1016F00006FA27488C3000F002FA2548A03000F0A6
:10170000FEF92348B43000F0FAF921486430A063B0
:101710001430E06305E02068E96AC06A884200D8B6
:101720002560606A0121401C6062E86A226981408C
:101730001143216100EB800007EB80004068A86046
:101740008168E9608268291D51608160E86A00EB68
:10175000800007EB8001696157F82010491C47F8A9
:10176000201000F00DFA606900280CD02068E96AAA
:10177000C06A884207D207494FF080500860BFF323
:101780004F8FBFF36F8FBDE8F08100002400002071
:10179000CC00002004ED00E02DE9F041856B1646F9
:1017A00004460027026CFAB17EB1E068FEF72AFD1C
:1017B000E168206C091AE1602268914202D2A168B6
:1017C000081AE060022E0DD00EE06068FEF71AFDE8
:1017D000216C606808446060A168884204D3206876
:1017E000606001E005B16D1E6D1CA5633846BDE863
:1017F000F08110B50446006B00F0CCF92046BDE83E
:10180000104000F0C7B900000E484FF4884142076D
:1018100006D0C01D0B4920F00700411AC1F58841D0
:10182000094A00230144C2E900030839143A21F0AF
:10183000070111604B600B600B1AC0E90013936045
:10184000536070479401002078000020144E154C1E
:10185000A6F1A0074FF08058DFF84C9012E000BFCF
:1018600000F080F9F068C568281D00F035F9A0681F
:10187000401EA0606068401E606000F081F928464C
:10188000FFF7B7FF60680028EAD138680128F9D966
:10189000C9F80080BFF34F8FBFF36F8FF2E70000EE
:1018A0006C0100202400002004ED00E02DE9F04749
:1018B0009946DDE9096480466FF00303206B03EB72
:1018C0008202089D104420F0070761B10020231810
:1018D0000A5C83F834200A5C12B1401C1028F6D34D
:1018E000002084F84300052D00D30425201DE56267
:1018F00000F010F904F1180000F00CF92461C5F1B2
:1019000005006462A0614A464146384600F0D2F8BC
:101910002060002E00D03460BDE8F08730B511495A
:1019200000E011460A688242FBD34B685C1884428F
:1019300003D1406818444860084643681C18944224
:1019400009D1084C143C2468A24209D052681A44B8
:1019500042600A6812680260814200D0086030BDAF
:101960000460F9E77800002010B5044600F0FAF8AA
:10197000A06B28B15FF0000400F002F9204610BD12
:101980000124F9E70548816B096821B1816BC968B9
:101990000968816270474FF0FF31FAE724000020A8
:1019A000BF2080F31188BFF34F8FBFF36F8FFEE727
:1019B0002DE9F041044600F0D5F894F9455004F1C2
:1019C000240609E0606A48B1304600F069FC08B1BD
:1019D00000F07CF96D1E6DB2002DF3DC4FF0FF3688
:1019E00084F8456000F0CCF800F0BCF894F944505D
:1019F00004F1100709E0206948B1384600F050FCB6
:101A000008B100F063F96D1E6DB2002DF3DC84F8AF
:101A10004460BDE8F04100F0B3B8000070B5044682
:101A2000002600F091F9224D286808B9FFF7ECFE76
:101A3000CCB304F00700C0F11000C1438C4232D88F
:101A4000211800292FDD686881422CD818481430ED
:101A50000246146801E02046144662688A4202D2B7
:101A60002268002AF7D12A6894421CD006682268AE
:101A7000026060680836421A102A04D96018426071
:101A80006160FFF74BFF61686868401A6860AA6888
:101A9000904200D2A86041F00040606000202060C9
:101AA000E868401CE86000F05FFC304670BD000054
:101AB0006400002010B5031F4FF080741C601B1FD2
:101AC00021F001011960191F024B0B6014394038D5
:101AD0000A6010BDA1190008D0E9013201699A60BD
:101AE000D0E901235A604A68824201D182684A6083
:101AF000002202610868401E08600868704700F113
:101B000008014FF0FF32C0E90112C16001610021FC
:101B10000160704700210161704730B50B685A1CA5
:101B200002D000F1080202E0026904E02246546893
:101B300025689D42FAD953684B6099608A6051606C
:101B400008610168491C016030BD42684A609368C1
:101B50008B6093685960916008610168491C01605D
:101B600070470000BF2080F31188BFF34F8FBFF391
:101B70006F8F02480168491C016070478000002097
:101B800003490868401E086001D180F3118870473E
:101B90008000002070B500281BD0A0F10804606808
:101BA000002816DA2168002913D120F00040606077
:101BB00000F0CAF8074D606869680844686020460C
:101BC000FFF7ACFE2869401C2861BDE8704000F0BA
:101BD000CBBB70BD640000204FF0E020002101610C
:101BE0008161024941610721016170473F1901008C
:101BF00010B5020009D000F0A7F800211046FFF749
:101C00000FFD00F0B1FB002807D104494FF08050D0
:101C10000860BFF34F8FBFF36F8F10BD04ED00E07E
:101C200070B50546FFF79EFF214C05B92568281DB4
:101C3000FFF752FF58B9E86A1E4A00EB800152F8DC
:101C4000211021B901218140206988432061A86ABF
:101C500018B105F11800FFF73FFF606A401C606291
:101C60002068854208D11348291DA030FFF76DFF79
:101C70006068401C606004E0A068401EA060FFF740
:101C800081FEFFF77DFF2068854202D02846FFF7DE
:101C9000B0FD606900280AD02068854207D1064956
:101CA0004FF080500860BFF34F8FBFF36F8F70BD50
:101CB00024000020CC00002004ED00E002490A6A64
:101CC0000260C9684160704724000020014901207A
:101CD000C86170472400002010B50C46054909680A
:101CE0001831FFF71AFF2046BDE810400121FFF729
:101CF00097BC0000240000207CB50F480025CDE9EA
:101D000000502B4680220DA10E4800F0FBF90A4C32
:101D10002C3C01280ED1BF2080F31188BFF34F8FD8
:101D2000BFF36F8F4FF0FF30A06201206061E5606C
:101D300000F034F8206B7CBD5000002049444C4535
:101D4000000000004D1800080248416B491C416327
:101D500070470000240000200E48416B11B10121A2
:101D6000C16170470021C16101690B4AB1FA81F17B
:101D7000C1F11F0101EB810102EB810101F10803B7
:101D80004A6852684A609A4201D152684A60D168F2
:101D90000160704724000020CC000020094810B5E5
:101DA000016841F47F010160016841F07F410160F9
:101DB000FFF712FF044900200860FEF7D7F9002062
:101DC00010BD000020ED00E08000002010B5BF2015
:101DD00080F31188BFF34F8FBFF36F8F00F0CEF900
:101DE00018B104494FF080500860002080F311883A
:101DF00010BD000004ED00E070B50E4605004FF088
:101E0000000418D0601EB0FBF5F0B04213D305FB00
:101E100006F010F1490F0ED84830FFF7FFFD04001F
:101E200009D004F1480120463EB10160C0E90F56D7
:101E3000012100F005F8204670BD0060F6E70000C3
:101E40002DE9F0410F4604004FF001063CD0E06B55
:101E5000C8B3B51EB5FBF0F1206C814234D3FFF757
:101E600081FED4E90F20216802FB0011A16000214E
:101E7000A163216861600A46D4E90F01401E00FB9E
:101E800001212046E16000F8445F457004F1100034
:101E90004FB1FFF734FE04F12400FFF730FE00BF1E
:101EA000FFF76EFE11E021690029F9D000F0F8F982
:101EB0000028F5D006494FF080500860BFF34F8FDF
:101EC000BFF36F8FECE7FFE700263046BDE8F081F7
:101ED00004ED00E02DE9FF4700273B4E82B0994614
:101EE0008A460446B8464FF0805500BFFFF73AFED9
:101EF000A06BE16B884206D3B9F1020F03D00498BE
:101F0000C0B1D7B11DE04A4651462046FFF744FC18
:101F1000616A19B104F1240000F0C2F920B1356002
:101F2000BFF34F8FBFF36F8FFFF72AFE012006B07C
:101F3000BDE8F087FFF724FE21E06846FFF7BEFE0C
:101F40000127FFF71DFEFFF7FFFEFFF70BFE94F9D9
:101F50004400401C01D184F8448094F94500401CA1
:101F600001D184F84580FFF70BFE04A9684600F014
:101F70009DF830B12046FFF71BFD00F0F5F9002079
:101F8000D5E7FFF7EFFDA06BE16B884213D1FFF7B8
:101F9000F7FD04F110000499FFF79EFE2046FFF7BD
:101FA00007FD00F0E1F90028A0D13560BFF34F8FA5
:101FB000BFF36F8F9AE7FFF7E3FD2046FFF7F8FCCA
:101FC00000F0D2F992E7000004ED00E02DE9F341C2
:101FD0000025354F82B00446A8464FF0805600BF1A
:101FE000FFF7C0FDA06B98B1401EA063206948B107
:101FF00004F1100000F054F920B13E60BFF34F8FA0
:10200000BFF36F8FFFF7BCFD012004B0BDE8F08186
:10201000039808B11DB106E0FFF7B2FD27E068465E
:10202000FFF74CFE0125FFF7ABFDFFF78DFEFFF735
:1020300099FD94F94400401C01D184F8448094F93E
:102040004500401C01D184F84580FFF799FD03A9A4
:10205000684600F02BF8002820460AD0FFF7A8FCBD
:1020600000F082F92046FFF77FFC0028B8D000205E
:10207000CBE7FFF779FC88B104F124000399FFF75F
:102080002BFE2046FFF794FC00F06EF90028A7D144
:102090003E60BFF34F8FBFF36F8FA1E72046FFF77E
:1020A00087FC00F061F99BE704ED00E02DE9F041C9
:1020B0000C460546FFF756FD114EF2686B68216825
:1020C000D01A4F1C0AD02F68D6F820C000266745CA
:1020D00006D0934204D8012526600BE0002509E0D4
:1020E000814205D9081A20602846FFF7E7FDF5E789
:1020F00001252660FFF744FD2846BDE8F081000079
:10210000240000202DE9FF5F8346DDE90E87994614
:1021100016468A469000FFF781FC05001DD04C2032
:10212000FFF77CFC040015D04C21FEF784F82563F2
:102130000021CDE90241CDE900874B4632465146A8
:102140005846FFF7B3FB2046FFF7AEFA012004B074
:10215000BDE8F09F2846FFF71DFD4FF0FF30F6E782
:102160000548416919B1406B18B100207047012042
:102170007047022070470000240000202DE9F04144
:10218000454C0026606B28B1A069401CA061304618
:10219000BDE8F081E5686D1CE56008D1A06BE16BDE
:1021A000A163E063206A401C2062FFF7EBFBA16A99
:1021B0003A488D420FD34FF0000EA16B096839B138
:1021C000A16BC968C9684A68954212D2A26202E04E
:1021D0004FF0FF31A1622168C96A01EB810150F81B
:1021E0002100012800D90126E0690028CFD001266E
:1021F000CDE7D1E902724B69BA60D1E902277A6072
:102200005F680A1D974201D1CF685F60C1F814E092
:102210001F687F1E1F60D1F828C0BCF1000F15D0C9
:10222000D1E907379F60D1E907377B60DCF804709C
:1022300001F118039F4202D10B6ACCF80430C1F8B7
:1022400028E0DCF800305B1ECCF80030CB6A0127B8
:10225000D4F810C09F4047EA0C07276103EB8303C3
:1022600000EB83035B688B609F68CF609F687A6038
:102270009A60CA6A02EB820200EB82034B6150F85B
:1022800022305B1C40F82230C96A2268D26A91422F
:1022900093D9012691E7000024000020CC00002003
:1022A00070B5C068C068D0E90732816A9A60D0E929
:1022B00007235A604B6800F11802934201D1036A68
:1022C0004B60002383620C68641E0C6024494D6BD4
:1022D00001249DB1234D6B68C3619E6806629E68B0
:1022E00072609A6085622A68521C2A60C06A0A6815
:1022F000D26A904232D90120CC6170BDD0E902652A
:102300004269B560D0E9025675605668051DAE4257
:1023100001D1C6685660436113685B1E1360C26AD0
:102320000E6904FA02F333430B610E4B02EB820297
:102330008C3B03EB8202526882609668C6609668A6
:1023400075609560C26A02EB820203EB820545610B
:1023500053F822506D1C43F82250C7E7002070BD8F
:1023600024000020580100202DE9F04100242746D8
:10237000FFF7F8FB3F4D686B401E6863686B0028F1
:1023800072D1A8683C4B00264FF00108F0BB6BE00F
:10239000D868C468D4E90721A06A9160D4E907121B
:1023A0005160426804F118018A4201D1216A4160FA
:1023B000A6620168491E0160D4E90221606991604A
:1023C000D4E9021251604268211D8A4201D1E268BB
:1023D000426066610268521E0260E26AD5F810C06F
:1023E00008FA02F040EA0C00286102EB8200224A5F
:1023F0008C3A02EB80004068A060D0F808C0C4F8B6
:102400000CC0D0F808C0CCF8041000E012E08160E5
:10241000E06A00EB800002EB8001616152F820105D
:10242000491C42F82010E06A2968C96A884201D331
:10243000C5F81C8018680028AAD10CB1FFF7A2FAD1
:10244000AC693CB1FFF79AFE08B1C5F81C80641E68
:10245000F8D1AE61E86938B108490127380708604A
:10246000BFF34F8FBFF36F8FFFF78AFB3846BDE88E
:10247000F0810000240000205801002004ED00E05D
:102480000000000000000000010203040607080924
:102490000000000001020304B8240008000000202E
:1024A00088000000F814000840250008880000207B
:1024B000104900000815000800000000000000009E
:1024C000000000000000000000000000010000000B
:1024D00010000000000000000024F40000000000D4
:1024E00000000000000000000000000000000000EC
:1024F00000000000000000000000000000000000DC
:1025000000000000000000000000000004000000C7
:1025100000000000000000000000000000000000BB
:1025200000000000000000000000000000000000AB
:102530000000000000000000AAAAAAAA00000000F3
:0400000508000131BD
:00000001FF
