:020000040800F2
:1000000098490020E1010008F3100008851000085D
:10001000F1100008EF020008B11400080000000011
:10002000000000000000000000000000490100087E
:10003000F1020008000000008D010008A111000875
:10004000FB010008FB010008FB010008FB010008A0
:10005000FB010008FB010008FB010008FB01000890
:10006000FB010008FB010008FB010008FB01000880
:10007000FB010008FB010008FB010008FB01000870
:10008000FB010008FB010008FB010008FB01000860
:10009000FB010008FB010008FB010008FB01000850
:1000A000FB010008FB010008FB010008FB01000840
:1000B000FB010008FB010008FB010008FB01000830
:1000C000FB010008FB010008FB010008FB01000820
:1000D000FB010008A5140008FB010008FB01000853
:1000E000FB010008FB010008FB010008FB01000800
:1000F000FB010008FB010008FB010008FB010008F0
:10010000FB010008FB010008FB010008FB010008DF
:10011000FB010008FB010008FB010008FB010008CF
:10012000FB010008FB010008FB010008FB010008BF
:10013000DFF810D000F0BAF8004800472118000896
:10014000AFF3008098490020224B19680868B0E896
:10015000F00F80F30988BFF36F8F4FF0000080F33A
:1001600011884EF00D0E7047000000000648006830
:10017000006880F3088862B661B6BFF34F8FBFF3A3
:100180006F8F00DF00BF00BF08ED00E0EFF30980D4
:10019000BFF36F8F0F4B1A6820E9F00F106008B59E
:1001A0004FF0BF0080F31188BFF34F8FBFF36F8F05
:1001B00001F0EAFE4FF0000080F31188BDE808402E
:1001C00019680868B0E8F00F80F30988BFF36F8FF3
:1001D000704700BF24000020EFF305807047000047
:1001E0000648804706480047FEE7FEE7FEE7FEE7D1
:1001F000FEE7FEE7FEE7FEE7FEE7FEE7FB1100088D
:1002000031010008202A04DB203A21FA02F0002103
:10021000704721FA02F3D040C2F120029140084316
:1002200019467047D2B201E000F8012B491EFBD2FB
:1002300070470022F6E710B513460A4604461946F1
:10024000FFF7F0FF204610BD2DE9F05F05460020C6
:1002500092469B4688460646814640241BE0284637
:10026000414647462246FFF7CDFF53465A46C01A3D
:10027000914110D311461846224600F029F82D1A54
:1002800067EB01084F4622460120002100F020F8CC
:1002900017EB00094E41201EA4F10104DFDC4846A3
:1002A00031462A464346BDE8F09F0000064C074D04
:1002B00006E0E06840F0010394E807009847103436
:1002C000AC42F6D3FFF738FF24240008442400088A
:1002D000202A04DB203A00FA02F100207047914006
:1002E000C2F1200320FA03F3194390407047FEE760
:1002F000704710B590F821100022022905D0042182
:10030000816380F82020012010BD01680B6823F074
:100310000E030B6001680B6823F001030B6090F87B
:100320004030C46B012101FA03F3636080F82110AF
:1003300080F82020104610BD2DE9F05F90F82110C4
:100340000024022903D004218163012485E001688F
:100350000A6822F00E020A6001680A6822F00102AF
:100360000A603F4E3E4FB215DFF8F4C0DFF8F09060
:10037000DFF8ECA0DFF8E8B0DFF8E4E00168783FF0
:1003800013011502ACF1640CA9F15009AAF13C0A61
:10039000ABF1280BAEF1140E4FF48018B14227D9FF
:1003A000B9420ED0614512D049451DD0514518D0F3
:1003B000594518D0714501D1424615E0294EB14248
:1003C00001D1012210E0274E1436B14201D1102292
:1003D0000AE0244E2836B14206D0224A3C329142ED
:1003E00001D11A4600E02A461E49091F0A602BE087
:1003F000B94213D0614517D0494522D051451DD08F
:1004000059451DD0714501D142461AE0B14202D191
:100410004FF0807215E0134EB14201D1012210E07D
:10042000104E1436B14201D110220AE00D4E28368A
:10043000B14206D00B4A3C32914201D11A4600E04B
:100440002A46074980394A60012180F8211000219D
:1004500080F82010416B01B188472046BDE8F09F2D
:1004600080000240080402402DE9F84FDFF8C891EF
:10047000002409F1040A0AF1040B23460F270BF1AB
:10048000040ED1E00125A54006EA0502AA4276D174
:10049000DFF8A8C14E68A6EB0C0866452BD00DDC32
:1004A000032E34D005DC36B3012E19D0022E2FD105
:1004B0001BE0112E16D0122E2AD119E0B8F5881F94
:1004C00019D006DCB8F5803F15D0B8F5801F1FD1D4
:1004D00011E0B8F5001F0ED0B8F5041F18D10AE0DE
:1004E000CB6815E0CB681B1D12E0CB6808330FE02A
:1004F000CB680C330CE08B682BB1012B4FF0080359
:1005000003D0456104E0042302E0056100E000231C
:10051000FF2A01D8064601E000F104064FEA8405EF
:1005200001D9A5F12005D6F8008007FA05FC28EAD4
:100530000C0803FA05F548EA0508C6F800804D687E
:10054000ED0070D53E4DAE6946F00106AE61AD6975
:1005500024F0030605F0010500953A4D06EB050C65
:10056000DCF80850A607360F07FA06F825EA080552
:10057000DFF8D480404503D14FF0000825E052E079
:10058000DFF8C880404502D14FF001081DE0DFF8D8
:10059000C080404502D14FF0020816E0DFF8B48079
:1005A000404502D14FF003080FE0DFF8AC80404532
:1005B00002D14FF0040808E0DFF8A080404502D1E6
:1005C0004FF0050801E04FF0060808FA06F848EA7F
:1005D0000508CCF808804D68D9F80060ED034D4659
:1005E00001D5164300E096432E604D68DAF80060AE
:1005F000AD03554601D5164300E096432E604D6885
:10060000DBF80060ED025D4601D5164300E096433D
:100610002E604D68DEF80060AD02754601D51643C8
:1006200000E096432E60641C0A681646E2407FF4A0
:1006300029AFBDE8F88F0000000401400000111050
:10064000001002400000014000080140000C014081
:10065000001001400014014000180140001C01403E
:10066000C26821EA02030A4043EA0241016170477D
:100670000AB1016170470904FBE700000148806886
:10068000704700001400002002488168027811447D
:100690008160704714000020074810B5016841F0E0
:1006A00010010160032000F075F8002000F006F84A
:1006B00000F024F8002010BD0020024070B50D4D60
:1006C00004464FF47A712878B1FBF0F00A490968C2
:1006D000B1FBF0F000F0ECFA48B9102C07D2002280
:1006E0002146501E00F036F800206C6070BD0120DD
:1006F00070BD000014000020200000200C4808B548
:10070000816941F001018161816901F0010100917C
:10071000C16941F08051C161C06900F08050009012
:100720000448416821F0E06141F00071416008BD7A
:100730000010024000000140002809DB00F01F0209
:10074000012191404009800000F1E020C0F8001133
:1007500070470000F0B40E4B1B680C46C3F3022335
:10076000C3F10705042D00D90425191D072901D25D
:10077000002300E0DB1E012606FA05F1491E214098
:1007800099409E40761E16403143F0BC00F0A2BE58
:100790000CED00E0064900F0070208684FF6FF0381
:1007A000184040EA0220034A1043086070470000E6
:1007B0000CED00E00000FA052DE9F0470F460500BA
:1007C00061D0434E306800F00700B84209D230686B
:1007D00020F0070038433060306800F00700B8426E
:1007E00051D128683B4C810712D5400703D560687A
:1007F00040F4E06060602878000703D5606840F44A
:10080000605060606068A96820F0F0000843606094
:100810002878C00728D06868012810D021680228ED
:1008200010D0890700292EDA616821F00301014305
:100830006160FFF723FF804641F288390DE02168AF
:100840008903EFE78901EDE7FFF718FFA0EB080147
:10085000494502D90320BDE8F0876068696800F067
:100860000C00B0EB810FEFD1306800F00700B84208
:100870000BD9306820F0070038433060306800F052
:100880000700B84201D00120E5E72878400705D5E8
:100890006068E96820F4E060084360602878000739
:1008A00006D56068296920F4605040EAC1006060A4
:1008B00000F038F86168084AC1F30311515CC84080
:1008C0000649086006480068FFF7F8FE0020C2E706
:1008D00000200240001002400C24000820000020EC
:1008E000180000200448054900684968044AC1F31B
:1008F0000221515CC84070472000002000100240D7
:100900001C2400080448054900684968044AC1F3EA
:10091000C221515CC84070472000002000100240F6
:100920001C24000812A185B00FC98DE80F0014A087
:10093000144A006804905168134801F00C03042B1A
:1009400010D0082B0ED1C1F38343C9031DF8030057
:100950000AD5516804AAC1F34041515C0A4A504388
:10096000B0FBF1F005B0704708494843FAE70000D2
:1009700002030405060708090A0B0C0D0E0F1010E0
:10098000010200000010024000127A0000093D0040
:100990002DE9F84F040070D02078C04DC00749D031
:1009A0006868C0F38100012807D06868C0F381003F
:1009B000022809D16868C00306D52868800339D5A4
:1009C00060680028E7D035E06068B0F5803F0BD064
:1009D00010B1B0F5A02F11D0286820F48030286025
:1009E000286820F4802002E0286840F480302860E5
:1009F000606890B1FFF742FE06460AE0286840F4BE
:100A000080202860F0E700BFFFF738FE801B6428D5
:100A100073D828688003F7D50CE0FFF72FFE064651
:100A200005E000BFFFF72AFE801B6428F0D8286885
:100A30008003F7D420789A4E80074FF001094FF0D9
:100A4000000839D5686810F00C0F07D06868C0F34B
:100A50008100022809D16868C00306D4286880078D
:100A600014D52069012808D110E02069B0B1C6F87A
:100A70000090FFF703FE074605E00AE1FFF7FEFDE1
:100A8000C01B0228C4D828688007F7D52868616988
:100A900020F0F80040EAC10028600DE0C6F80080B0
:100AA000FFF7ECFD074604E0FFF7E8FDC01B022856
:100AB00023D828688007F7D4207800072CD57948F8
:100AC000A169D9B1C0F80090FFF7D8FD074604E04E
:100AD000FFF7D4FDC01B02280FD8686A8007F7D53E
:100AE00071484FF4FA510068B0FBF1F0009000BF7C
:100AF0000098411E0091FAD20EE080E0C0F800801C
:100B0000FFF7BCFD074604E0FFF7B8FDC01B022855
:100B100075D8686A8007F7D42078400760D5E869FF
:100B20000027C00008D4E86940F08050E861E86917
:100B3000012700F0805000905C480168C90513D47B
:100B40000168834641F480710160FFF797FD82469A
:100B500006E000BFFFF792FDA0EB0A0064284ED824
:100B6000DBF80000C005F5D5E06801280AD008B11F
:100B7000052813D0286A20F001002862286A20F096
:100B8000040002E0286A40F001002862E06841F2B7
:100B9000883B98B1FFF772FD82460BE0286A40F06F
:100BA00004002862EEE700BFFFF768FDA0EB0A0132
:100BB00059455AD8286A8007F6D50CE0FFF75EFD44
:100BC000824605E0FFF75AFDA0EB0A0159454CD8D3
:100BD000286A8007F6D41FB1E86920F08050E861E8
:100BE000E06988B36968C1F38101022944D0022811
:100BF000C6F8608004D0FFF741FD044638E034E0D9
:100C0000FFF73CFD074604E0FFF738FDC01B022854
:100C10002BD828688001F7D4206AB0F5803F05D131
:100C20006868A16820F4003008436860D4E90801CE
:100C30000843696821F4741108436860C6F860903D
:100C4000FFF71CFD044606E025E000BFFFF716FD98
:100C5000001B022809D828688001F7D51BE000BFD7
:100C6000FFF70CFD001B022802D90320BDE8F88F16
:100C700028688001F4D40EE00128F7D06868226A61
:100C800000F48031914204D1616A00F4701088420E
:100C900001D00120EAE70020E8E700000010024050
:100CA00000004242800442422000002000700040C8
:100CB00010B5401EB0F1807F01D3012010BD4FF070
:100CC000E02460610F21601700F004FC0020A061A7
:100CD00007202061002010BD70477047F8B50268FA
:100CE00004461068D168536910F00F0F4FF00005EB
:100CF00053D003F0010601F4907737435FD0C20769
:100D000005D0CA0503D5226C42F0010222644207D5
:100D100005D5DA0703D0226C42F002022264820772
:100D200005D5DA0703D0226C42F0040222640207E0
:100D300007D501F02002324303D0226C42F00802B2
:100D40002264226C002A34D0800604D5880602D59D
:100D5000204600F0BDFA20684069216CC0F3801085
:100D6000090700D430B3204600F09AFA20684169A0
:100D700049061BD5416921F040014161A06BA8B132
:100D800058494163A06BFFF7D7FA002811D0A06B38
:100D9000416B01B0BDE8F040084783060FD58B06D4
:100DA0000DD52046BDE8F84000F092BA2046FFF786
:100DB00094FFF8BD2046FFF790FF2564F8BD266B31
:100DC0002023012E52D1C60650D5CE064ED510682E
:100DD00050680090506940062AD5A16B08684068A9
:100DE0000004000CEAD0A68D8642E7D9E085886928
:100DF000202818D0D06820F48070D0602068416925
:100E000021F0010141612068416921F04001416107
:100E100084F83E3025632068C16821F01001C1606C
:100E2000A06BFFF766FAA08DE18D401A81B219E040
:100E3000A08DE18D401A81B2E08D0028BED000293E
:100E4000BCD0D06820F49070D0602068426922F055
:100E50000102426184F83E3025632068C26822F0B6
:100E60001002C2602046FFF737FFF8BD05062BD5FC
:100E70000D0629D594F83D002128F6D1A068B0F5DB
:100E8000805F01D12069B0B1206A411C21622168D4
:100E900000784860E08C401E0004000CE084E4D13F
:100EA0002068C16821F08001C1602068C16841F0FC
:100EB0004001C160F8BD206A0088C0F3080050609E
:100EC000206A801C2062E5E74006F3D54806F1D58C
:100ED000D168204621F04001D16084F83D3000F017
:100EE000D0F8F8BD9112000870B5040004D094F851
:100EF0003D00002510B106E0012070BD84F83C5093
:100F0000204600F023F8242084F83D002068C168C2
:100F100021F40051C160204600F036FA20680169D2
:100F200021F4904101612068416921F02A01416169
:100F30002068C16841F40051C1602564202084F814
:100F40003D0084F83E00002070BD000030B585B043
:100F50000024009401940294039400681849884284
:100F60002CD11848816941F480418161816901F483
:100F700080410491816941F0040181618069124DD1
:100F800000F0040004904FF40070009002200190E3
:100F90000320039069462846FFF766FA2815CDE935
:100FA0000004694628460294FFF75EFA00221146C3
:100FB0002520FFF7CFFB2520FFF7BEFB05B030BD96
:100FC0000038014000100240000801407047000056
:100FD0002DE9F843044690F83D001F4616460D469D
:100FE00020284CD1C5B1BEB194F83C00012846D0B0
:100FF000012084F83C004FF00008C4F84080212014
:1010000084F83D00FFF73AFBA6848146E684A06899
:10101000B0F5805F03D004E00120BDE8F8832069CB
:1010200028B12E465FF0000584F83C800EE00026D3
:10103000FAE78021204600F003FAA0B9AEB116F815
:10104000010B21684860E08C401EE084E08C4B4638
:101050004FF0000200970028EBD14FF040012046EE
:1010600000F0EEF930B10320D7E735F8020BC0F3FA
:101070000800E6E7202084F83D000020CDE70220AC
:10108000CBE77047FEE7000030B585B00024164876
:101090000094019402940394816941F040018161BC
:1010A000816901F040010491816941F0040181618D
:1010B00080690E4D00F0040004900122172128469B
:1010C000FFF7D6FA002268212846FFF7D1FA7F20E1
:1010D00000900120CDE901040220039069462846D2
:1010E000FFF7C2F905B030BD001002400018014002
:1010F000FEE770471CB500F0F9FD00F067FF1749E7
:10110000086110B116A000F0D5F914490220091D9C
:10111000CDE900010023802218A11A4801F01CF833
:101120000E4903200831CDE900010023802216A1D9
:10113000174801F011F8094904200C31CDE90001EC
:101140000023802213A1154801F006F8002000F0CA
:101150002BFEBDE81C4000F0D7BD000000000020C1
:101160006576656E7467726F757020637265617401
:101170006520737563636573730D0A005461736B47
:1011800031000000FD1100085461736B3200000053
:101190004D1200085461736B33000000791200088F
:1011A00010B5FFF771FA01F005F8012803D0BDE88A
:1011B000104000F0BBBF10BD10B590B028216846AC
:1011C000FFF737F814210AA8FFF733F80220009040
:1011D0000120049010200024059007946846FFF732
:1011E000D7FB0F20CDE90A040C940D9400210AA826
:1011F0000E94FFF7E1FA10B010BD70470E4D0024B9
:10120000641CE4B2032C01D9002403E014B1022CC5
:1012100006D00CE00121286900F0E5FE07A004E0FB
:101220000221286900F0DFFE06A000F043F90A2041
:1012300000F0A2FDE4E700000000002062697430C5
:101240000D0A0000626974310D0A000008B5074DEF
:101250004FF0FF34012300941A460321286900F05F
:10126000F5FE014602A000F025F9F3E7000000209A
:101270003D2523780D0A0000044C40212046FFF74D
:10128000EFF9642000F078FDF7E700000018014056
:1012900010B5406A0021C185C184FFF71EFD10BD55
:1012A0000168CA6822F49072CA6001684A6922F033
:1012B00001024A61016B012904D10168CA6822F068
:1012C0001002CA60202180F83E100021016370479F
:1012D00008B590F83E10222901D0022008BD82688E
:1012E0004FF480539A4201D1016921B1816A9A4237
:1012F0001BD04AB10AE00268816A5268C2F3080250
:101300000A80816A891C08E0026972B10268526829
:1013100002F07F020A70816A491C8162C18D491EF8
:101320000904090CC18503D019E002685268F1E78D
:101330000168CA6822F02002CA600168CA6822F403
:101340008072CA6001684A6922F001024A61202164
:1013500080F83E10016B012903D0FFF737FE002013
:1013600008BD002101630168CA6822F01002CA604A
:1013700001680A68D20602D50A6849680091818D21
:10138000FFF7AAFCEBE7000070B5044600680169AE
:10139000E26821F44051114301612169A0680843CA
:1013A000616908432168CA6841F20C639A430243A9
:1013B000CA6020684169A26921F44071114341610A
:1013C0001E492068884202D1FFF79CFA01E0FFF72E
:1013D00089FA00EBC00101EB001260686421800013
:1013E000B2FBF0F3B3FBF1F36FF018067343B2FBFB
:1013F000F0F5B2FBF0F605EB8305322303EB0515A0
:10140000B5FBF1F5B6FBF1F605F0F00505EB0615B9
:10141000B2FBF0F6B2FBF0F0B0FBF1F06FF01802A7
:10142000504306EB800003EB0010B0FBF1F02168A5
:1014300000F00F002844886070BD000000380140B3
:101440002DE9F041984617460E460446069D1DE0DC
:10145000681C1BD02DB1FFF711F9A0EB0800A842C2
:1014600014D92068C16821F4D071C1602068416935
:1014700021F001014161202084F83D0084F83E0004
:10148000002084F83C000320BDE8F081206800685B
:1014900036EA000004D00020B842D9D00020F3E79B
:1014A0000120F9E70148FFF719BC0000880000207F
:1014B000FEE700000FB4054B10B503A9044A0298DB
:1014C00000F028F810BC5DF814FB0000D5170008E8
:1014D000840000200907090E002804DB00F1E02049
:1014E00080F80014704700F00F0000F1E02080F851
:1014F000141D704702E008C8121F08C1002AFAD163
:1015000070477047002001E001C1121F002AFBD183
:10151000704700002DE9FF4F8DB09B460F460446F3
:10152000002606E025280BD05A460F999047641CE8
:10153000761C20780028F5D111B03046BDE8F08F38
:101540000025A8460122984900E0054314F8013F10
:10155000203B02FA03F00842F7D120782E2817D159
:1015600014F8010F45F004052A280ED06FF02F0261
:101570002078A0F1300109290AD808EB880102EB94
:10158000410100EB0108641CF2E757F8048B641C6E
:1015900020786C280DD004DC4C2812D06A2811D198
:1015A00004E074280DD07A280CD10AE045F4001527
:1015B00007E0617845F48015814202D1641C05F58D
:1015C0008015641C2078692844D008DC0028B3D03A
:1015D000582867D063280FD0642808D13AE07028D3
:1015E00065D0732812D075285AD078285AD05A4618
:1015F0000F999047761CD5E017F8040B8DF8000082
:1016000000208DF80100E946012003E057F8049B13
:101610004FF0FF3069074FF0000501D40AE06D1C60
:1016200045450DDA8542FADB19F805100029F6D197
:1016300006E06D1C8542FCDB19F805100029F8D185
:101640002E4404E019F8010B5A460F9990476D1E7D
:10165000F8D2A7E00A200021CDE90801C5F3025025
:1016600002280CD001CFC117021E71F100020CDA62
:101670000023D0EB030063EB01012D2208E0FF1DE6
:1016800027F00707F7E80201EEE72A0504D52B2229
:101690008DF8282001223CE0EA073AD02022F7E723
:1016A0000A2000E010200021CDE9080107E0102009
:1016B000002145F00405CDE908014FF00808C5F305
:1016C0000250022810D001CF00214FF0000A2A0753
:1016D00020D52278702A0DD0DDE908C38CF0100CDB
:1016E0005CEA030C0CD015E0FF1D27F00707F7E8B4
:1016F0000201EAE740228DF828204FF0010A0CE0B1
:1017000050EA010306D030238DF828308DF82920C7
:10171000022292462278582A04D024A20DF12009F0
:101720000B9209E026A2F9E7DDE90823FEF78CFD1C
:101730000B9B9B5C09F8013D50EA0102F4D1ADEB33
:10174000090020300890680701D44FF0010808997B
:10175000884503DD0898A8EB000000E000208046E3
:10176000002506E00AA85A46405D0F9990476D1C77
:10177000761C5545F6DB04E030205A460F99904719
:10178000761CB8F10001A8F10108F5DC05E019F8B4
:10179000010B5A460F999047761C0899481E0890ED
:1017A0000029F4DC641CC4E609280100303132331E
:1017B000343536373839616263646566000000008D
:1017C0003031323334353637383941424344454677
:1017D0000000000013B54FF6FF730122694602486E
:1017E000FFF7F6FB00981CBD880000201CB50749D8
:1017F0000120CDE900010023802205A1074800F067
:10180000ABFCBDE81C4000F08FBB000000000020D6
:1018100053746172745F5461736B0000F5100008BB
:1018200010B5FEF739FFFFF7C7FCFFF72DFC0B489B
:1018300009490C2201604FF416514160002181607A
:10184000C160C0E904128161C161FFF74DFBFFF780
:10185000CDFF002010BD00000038014088000020AE
:101860002DE9F0411E4C0F460546E6682068001D34
:1018700000F0EAF938B9206890F82C10012088406F
:10188000216981432161681C15D1A7B115492268DE
:101890004868906023688268DA6022688368121D55
:1018A0005A602268121D8260206841610868401CED
:1018B0000860BDE8F08120683544B5424560216884
:1018C00005D2E06BBDE8F041091D00F0EBB9A06B5B
:1018D000091D00F0E7F9A06A8542EAD2A562E8E7AF
:1018E00024000020800100202DE9F041054600F091
:1018F000FDF9364CA068401CA0602068344F10B140
:10190000606940B32DE02560A068012829D1002638
:1019100006EB860007EB800000F0B6F9761C052E7A
:10192000F6D32B48643000F0AFF92948783000F046
:10193000ABF927488C3000F0A7F92548A03000F01B
:10194000A3F92348B43000F09FF921486430A06324
:101950001430E06305E02068E96AC06A884200D874
:101960002560606A0121401C6062E86A226981404A
:101970001143216100EB800007EB80004068A86004
:101980008168E9608268291D51608160E86A00EB26
:10199000800007EB8001696157F82010491C47F867
:1019A000201000F0B1F9606900280CD02068E96AC5
:1019B000C06A884207D207494FF080500860BFF3E1
:1019C0004F8FBFF36F8FBDE8F0810000240000202F
:1019D000CC00002004ED00E010B50446006B00F0E0
:1019E0009DF92046BDE8104000F098B90E484FF42C
:1019F0008841420706D0C01D0B4920F00700411A5C
:101A0000C1F58841094A00230144C2E900030839AD
:101A1000143A21F0070111604B600B600B1AC0E90A
:101A200000139360536070479401002078000020F9
:101A3000144E154CA6F1A0074FF08058DFF84C90DB
:101A400012E000BF00F052F9F068C568281D00F0F0
:101A5000FBF8A068401EA0606068401E606000F057
:101A600053F92846FFF7B8FF60680028EAD13868C4
:101A70000128F9D9C9F80080BFF34F8FBFF36F8FEA
:101A8000F2E700006C0100202400002004ED00E0DB
:101A90002DE9F0479946DDE9096480466FF00303BC
:101AA000206B03EB8202089D104420F0070761B110
:101AB000002023180A5C83F834200A5C12B1401C11
:101AC0001028F6D3002084F84300052D00D3042508
:101AD000201DE56200F0E3F804F1180000F0DFF8E3
:101AE0002461C5F105006462A0614A46414638465A
:101AF00000F098F82060002E00D03460BDE8F08738
:101B000030B5114900E011460A688242FBD34B68A8
:101B10005C18844203D14068184448600846436812
:101B20001C18944209D1084C143C2468A24209D0E4
:101B300052681A4442600A6812680260814200D00A
:101B4000086030BD0460F9E7780000200548816B2B
:101B5000096821B1816BC9680968816270474FF0DB
:101B6000FF31FAE724000020BF2080F31188BFF383
:101B70004F8FBFF36F8FFEE70346002012B19943EA
:101B800002D070470B42FCD00120704770B504466C
:101B9000002600F0F1F9224D286808B9FFF726FF6A
:101BA000CCB304F00700C0F11000C1438C4232D81E
:101BB000211800292FDD686881422CD8184814307C
:101BC0000246146801E02046144662688A4202D246
:101BD0002268002AF7D12A6894421CD0066822683D
:101BE000026060680836421A102A04D96018426000
:101BF0006160FFF785FF61686868401A6860AA68DD
:101C0000904200D2A86041F0004060600020206057
:101C1000E868401CE86000F06DFB304670BD0000D5
:101C20006400002010B5031F4FF080741C601B1F60
:101C300021F001011960191F024B0B601439403863
:101C40000A6010BD691B0008D0E9013201699A6081
:101C5000D0E901235A604A68824201D182684A6011
:101C6000002202610868401E086008687047000092
:101C7000044908680A688069D26A0968C2F10502E5
:101C80008A6170472400002000F108014FF0FF3204
:101C9000C0E90112C16001610021016070470021AB
:101CA0000161704730B50B685A1C02D000F1080280
:101CB00002E0026904E02246546825689D42FAD990
:101CC00053684B6099608A60516008610168491CE3
:101CD000016030BD42684A6093688B6093685960C8
:101CE000916008610168491C01607047BF2080F362
:101CF0001188BFF34F8FBFF36F8F02480168491CF3
:101D0000016070478000002003490868401E086099
:101D100001D180F3118870478000002070B5002841
:101D20001BD0A0F108046068002816DA2168002999
:101D300013D120F00040606000F01EF9074D60688C
:101D40006968084468602046FFF7DAFE2869401C8D
:101D50002861BDE8704000F0CDBA70BD640000207D
:101D60004FF0E020002101618161024941610721BA
:101D7000016170473F19010010B5020009D000F061
:101D8000FBF800211046FFF76BFD00F0B3FA0028C6
:101D900007D104494FF080500860BFF34F8FBFF365
:101DA0006F8F10BD04ED00E070B50546FFF79EFF94
:101DB000214C05B92568281DFFF746FF58B9E86A88
:101DC0001E4A00EB800152F8211021B90121814007
:101DD000206988432061A86A18B105F11800FFF74F
:101DE00033FF606A401C60622068854208D1134856
:101DF000291DA030FFF76EFF6068401C606004E0A2
:101E0000A068401EA060FFF7A1FEFFF77DFF2068DD
:101E1000854202D02846FFF7DFFD606900280AD01E
:101E20002068854207D106494FF080500860BFF313
:101E30004F8FBFF36F8F70BD24000020CC000020B7
:101E400004ED00E003460E4830B4046841F0004160
:101E5000A16159680468E1618C6805682C620468B6
:101E60008D6818346C60046818348C600068836274
:101E70001868401C186030BC01211046FFF7F0BC08
:101E80002400002070B541F000410160D0E9014319
:101E9000D0E90312A360D0E9013463605368834240
:101EA00001D183685360002303611068401E1060F5
:101EB000D1E902424869A260D1E902246260446823
:101EC0000A1D944201D1CC6844604B6103685B1EDB
:101ED0000360134BCC6A01251E6905FA04F03043F8
:101EE000186104EB84000F4C04EB800040688860AC
:101EF0008668CE60866872608260C86A00EB800087
:101F000004EB80024A6154F82020521C44F820203F
:101F1000C86A1968C96A884200D9DD6170BD0000CD
:101F200024000020CC0000207CB50F480025CDE91E
:101F300000502B4680220DA10E4800F00DF90A4CEE
:101F40002C3C01280ED1BF2080F31188BFF34F8FA6
:101F5000BFF36F8F4FF0FF30A06201206061E5603A
:101F600000F0CCF8206B7CBD5000002049444C456B
:101F700000000000311A00080248416B491C41630F
:101F800070470000240000200E48416B11B1012170
:101F9000C16170470021C16101690B4AB1FA81F149
:101FA000C1F11F0101EB810102EB810101F1080385
:101FB0004A6852684A609A4201D152684A60D168C0
:101FC0000160704724000020CC00002010B51820CC
:101FD000FFF7DCFD040004D000202060201DFFF787
:101FE00053FE204610BD2DE9F041884604460027E7
:101FF000051D00F10C06FFF7BFFF2168E86841EA04
:102000000801216017E0D0E9001501F07F4253017B
:10201000236821F07F4102D40B4203D10AE031EA68
:10202000030307D1D20100D50F43216841F00071AD
:10203000FFF728FF2846B042E5D12068B84320606A
:1020400000F058F92068BDE8F08100002DE9F04764
:10205000994690460E4604460027DDF820A0FFF77B
:102060008BFF25684A4631462846FFF785FD30B18B
:10207000B8F1000F1AD02068B043206016E0BAF122
:10208000000F13D0B8F1000F01D04FF08077B9F1F5
:10209000000F01D047F0806746EA07015246201D35
:1020A000FFF7D0FE00F026F918B10AE000F022F99F
:1020B0001FE011494FF080500860BFF34F8FBFF30E
:1020C0006F8FFFF7D5FD0546800110D4FFF70EFE98
:1020D00025684A4631462846FFF74EFD28B1B8F13B
:1020E000000F02D02068B0432060FFF70DFE25F0FE
:1020F0007F452846BDE8F08704ED00E0094810B5AB
:10210000016841F47F010160016841F07F41016095
:10211000FFF726FE044900200860FEF727F800209C
:1021200010BD000020ED00E08000002010B5BF20B1
:1021300080F31188BFF34F8FBFF36F8F00F048F823
:1021400018B104494FF080500860002080F31188D6
:1021500010BD000004ED00E02DE9FF5F8346DDE9DE
:102160000E87994616468A469000FFF70FFD050038
:102170001DD04C20FFF70AFD040015D04C21FEF7BE
:1021800058F825630021CDE90241CDE900874B468F
:10219000324651465846FFF77BFC2046FFF7A4FB2A
:1021A000012004B0BDE8F09F2846FFF7B7FD4FF0CF
:1021B000FF30F6E70548416919B1406B18B10020BE
:1021C0007047012070470220704700002400002063
:1021D0002DE9F041454C0026606B28B1A069401CF8
:1021E000A0613046BDE8F081E5686D1CE56008D16E
:1021F000A06BE16BA163E063206A401C2062FFF7E3
:10220000A5FCA16A3A488D420FD34FF0000EA16B96
:10221000096839B1A16BC968C9684A68954212D288
:10222000A26202E04FF0FF31A1622168C96A01EBAE
:10223000810150F82100012800D90126E069002819
:10224000CFD00126CDE7D1E902724B69BA60D1E95E
:1022500002277A605F680A1D974201D1CF685F60EC
:10226000C1F814E01F687F1E1F60D1F828C0BCF1C0
:10227000000F15D0D1E907379F60D1E907377B60A0
:10228000DCF8047001F118039F4202D10B6ACCF80C
:102290000430C1F828E0DCF800305B1ECCF80030D8
:1022A000CB6A0127D4F810C09F4047EA0C0727618A
:1022B00003EB830300EB83035B688B609F68CF6055
:1022C0009F687A609A60CA6A02EB820200EB82031E
:1022D0004B6150F822305B1C40F82230C96A2268FA
:1022E000D26A914293D9012691E700002400002090
:1022F000CC0000202DE9F04100242746FFF7F6FC32
:102300003F4D686B401E6863686B002872D1A868F7
:102310003C4B00264FF00108F0BB6BE0D868C46866
:10232000D4E90721A06A9160D4E90712516042689C
:1023300004F118018A4201D1216A4160A662016854
:10234000491E0160D4E9022160699160D4E902125A
:1023500051604268211D8A4201D1E2684260666193
:102360000268521E0260E26AD5F810C008FA02F054
:1023700040EA0C00286102EB8200224A8C3A02EB10
:1023800080004068A060D0F808C0C4F80CC0D0F845
:1023900008C0CCF8041000E012E08160E06A00EBB5
:1023A000800002EB8001616152F82010491C42F864
:1023B0002010E06A2968C96A884201D3C5F81C80E8
:1023C00018680028AAD10CB1FFF7C0FBAC693CB17A
:1023D000FFF7FEFE08B1C5F81C80641EF8D1AE619F
:1023E000E86938B10849012738070860BFF34F8F03
:1023F000BFF36F8FFFF788FC3846BDE8F08100001F
:10240000240000205801002004ED00E0000000003E
:102410000000000001020304060708090000000094
:10242000010203044424000800000020880000008A
:10243000F4140008CC240008880000201049000093
:10244000041500080000000000000000000000006B
:10245000000000000000000001000000100000006B
:10246000000000000024F400000000000000000054
:10247000000000000000000000000000000000005C
:10248000000000000000000000000000000000004C
:102490000000000000000000040000000000000038
:1024A000000000000000000000000000000000002C
:1024B000000000000000000000000000000000001C
:0C24C00000000000AAAAAAAA0000000068
:0400000508000131BD
:00000001FF
