:020000040800F2
:10000000D0490020E1010008BF0F0008970E00084A
:10001000BD0F00084D0200089D11000800000000FF
:10002000000000000000000000000000490100087E
:100030004F020008000000008D010008F90F0008C1
:10004000FB010008FB010008FB010008FB010008A0
:10005000FB010008FB010008FB010008FB01000890
:10006000FB010008FB010008FB010008FB01000880
:10007000FB010008FB010008FB010008FB01000870
:10008000FB010008FB010008FB010008FB01000860
:10009000FB010008FB010008FB010008FB01000850
:1000A000FB010008FB010008FB010008FB01000840
:1000B0005510000861100008FB010008FB01000852
:1000C000FB010008FB010008FB010008FB01000820
:1000D000FB010008FB010008FB010008FB01000810
:1000E000FB010008FB010008FB010008FB01000800
:1000F000FB010008FB010008FB010008FB010008F0
:10010000FB010008FB010008FB010008FB010008DF
:10011000FB010008FB010008FB010008FB010008CF
:10012000FB010008FB010008FB010008FB010008BF
:10013000DFF810D000F078F80048004711120008EE
:10014000AFF30080D0490020224B19680868B0E85E
:10015000F00F80F30988BFF36F8F4FF0000080F33A
:1001600011884EF00D0E7047000000000648006830
:10017000006880F3088862B661B6BFF34F8FBFF3A3
:100180006F8F00DF00BF00BF08ED00E0EFF30980D4
:10019000BFF36F8F0F4B1A6820E9F00F106008B59E
:1001A0004FF0500080F31188BFF34F8FBFF36F8F74
:1001B00001F052FB4FF0000080F31188BDE80840C9
:1001C00019680868B0E8F00F80F30988BFF36F8FF3
:1001D000704700BF18000020EFF305807047000053
:1001E0000648804706480047FEE7FEE7FEE7FEE7D1
:1001F000FEE7FEE7FEE7FEE7FEE7FEE75310000836
:1002000031010008D2B201E000F8012B491EFBD2F7
:1002100070470022F6E710B513460A460446194611
:10022000FFF7F0FF204610BD064C074D06E0E068E2
:1002300040F0010394E8070098471034AC42F6D32D
:10024000FFF77AFFBC1B0008DC1B0008FEE77047C5
:100250002DE9F84FDFF8C891002409F1040A0AF1EA
:10026000040B23460F270BF1040ED1E00125A54016
:1002700006EA0502AA4276D1DFF8A8C14E68A6EBCD
:100280000C0866452BD00DDC032E34D005DC36B3CC
:10029000012E19D0022E2FD11BE0112E16D0122EB6
:1002A0002AD119E0B8F5881F19D006DCB8F5803FCF
:1002B00015D0B8F5801F1FD111E0B8F5001F0ED082
:1002C000B8F5041F18D10AE0CB6815E0CB681B1DF8
:1002D00012E0CB6808330FE0CB680C330CE08B687E
:1002E0002BB1012B4FF0080303D0456104E0042338
:1002F00002E0056100E00023FF2A01D8064601E084
:1003000000F104064FEA840501D9A5F12005D6F8CD
:10031000008007FA05FC28EA0C0803FA05F548EA0C
:100320000508C6F800804D68ED0070D53E4DAE69F9
:1003300046F00106AE61AD6924F0030605F0010543
:1003400000953A4D06EB050CDCF80850A607360F71
:1003500007FA06F825EA0805DFF8D480404503D1FE
:100360004FF0000825E052E0DFF8C880404502D198
:100370004FF001081DE0DFF8C080404502D14FF08A
:10038000020816E0DFF8B480404502D14FF00308C0
:100390000FE0DFF8AC80404502D14FF0040808E0E0
:1003A000DFF8A080404502D14FF0050801E04FF092
:1003B000060808FA06F848EA0508CCF808804D68EF
:1003C000D9F80060ED034D4601D5164300E0964391
:1003D0002E604D68DAF80060AD03554601D516432E
:1003E00000E096432E604D68DBF80060ED025D464C
:1003F00001D5164300E096432E604D68DEF800609C
:10040000AD02754601D5164300E096432E60641C8C
:100410000A681646E2407FF429AFBDE8F88F000075
:1004200000040140000011100010024000000140D3
:1004300000080140000C0140001001400014014080
:1004400000180140001C0140C26821EA02030A4072
:1004500043EA0241016170470AB101617047090432
:10046000FBE700000148806870470000080000209A
:1004700002488168027811448160704708000020BA
:10048000074810B5016841F010010160032000F039
:1004900075F8002000F006F800F024F8002010BDE8
:1004A0000020024070B50D4D04464FF47A71287853
:1004B000B1FBF0F00A490968B1FBF0F000F0CCFAAA
:1004C00048B9102C07D200222146501E00F036F801
:1004D00000206C6070BD012070BD0000080000208D
:1004E000140000200C4808B5816941F001018161C8
:1004F000816901F001010091C16941F08051C16140
:10050000C06900F0805000900448416821F0E0612B
:1005100041F00071416008BD001002400000014040
:10052000002809DB00F01F020121914040098000F2
:1005300000F1E020C0F8001170470000F0B40E4B4D
:100540001B680C46C3F30223C3F10705042D00D931
:100550000425191D072901D2002300E0DB1E012616
:1005600006FA05F1491E214099409E40761E16402C
:100570003143F0BC00F013BE0CED00E0064900F082
:10058000070208684FF6FF03184040EA0220034ABA
:1005900010430860704700000CED00E00000FA0511
:1005A0002DE9F0470F46050061D0434E306800F05A
:1005B0000700B84209D2306820F0070038433060A5
:1005C000306800F00700B84251D128683B4C8107E1
:1005D00012D5400703D5606840F4E0606060287879
:1005E000000703D5606840F4605060606068A968E7
:1005F00020F0F000084360602878C00728D06868C1
:10060000012810D02168022810D0890700292EDA8D
:10061000616821F0030101436160FFF723FF804619
:1006200041F288390DE021688903EFE78901EDE7A0
:10063000FFF718FFA0EB0801494502D90320BDE8E8
:10064000F0876068696800F00C00B0EB810FEFD1B3
:10065000306800F00700B8420BD9306820F007007E
:1006600038433060306800F00700B84201D0012004
:10067000E5E72878400705D56068E96820F4E06080
:10068000084360602878000706D56068296920F46F
:10069000605040EAC100606000F018F86168084AE4
:1006A000C1F30311515CC840064908600648006860
:1006B000FFF7F8FE0020C2E70020024000100240D1
:1006C000AC1B0008140000200C00002012A185B013
:1006D0000FC98DE80F0014A0144A006804905168F7
:1006E000134801F00C03042B10D0082B0ED1C1F3DA
:1006F0008343C9031DF803000AD5516804AAC1F356
:100700004041515C0A4A5043B0FBF1F005B07047DC
:1007100008494843FAE700000203040506070809F0
:100720000A0B0C0D0E0F1010010200000010024009
:1007300000127A0000093D002DE9F84F040070D046
:100740002078C04DC00749D06868C0F381000128F7
:1007500007D06868C0F38100022809D16868C00327
:1007600006D52868800339D560680028E7D035E0D1
:100770006068B0F5803F0BD010B1B0F5A02F11D05C
:10078000286820F480302860286820F4802002E067
:10079000286840F480302860606890B1FFF762FEFE
:1007A00006460AE0286840F480202860F0E700BF91
:1007B000FFF758FE801B642873D828688003F7D59C
:1007C0000CE0FFF74FFE064605E000BFFFF74AFECC
:1007D000801B6428F0D828688003F7D420789A4ECC
:1007E00080074FF001094FF0000839D5686810F014
:1007F0000C0F07D06868C0F38100022809D168682F
:10080000C00306D42868800714D52069012808D1C0
:1008100010E02069B0B1C6F80090FFF723FE07464C
:1008200005E00AE1FFF71EFEC01B0228C4D82868B5
:100830008007F7D52868616920F0F80040EAC10018
:1008400028600DE0C6F80080FFF70CFE074604E0C4
:10085000FFF708FEC01B022823D828688007F7D4BA
:10086000207800072CD57948A169D9B1C0F800904B
:10087000FFF7F8FD074604E0FFF7F4FDC01B022870
:100880000FD8686A8007F7D571484FF4FA510068AD
:10089000B0FBF1F0009000BF0098411E0091FAD229
:1008A0000EE080E0C0F80080FFF7DCFD074604E0C2
:1008B000FFF7D8FDC01B022875D8686A8007F7D4F7
:1008C0002078400760D5E8690027C00008D4E869AF
:1008D00040F08050E861E869012700F08050009006
:1008E0005C480168C90513D40168834641F48071EE
:1008F0000160FFF7B7FD824606E000BFFFF7B2FDDB
:10090000A0EB0A0064284ED8DBF80000C005F5D53E
:10091000E06801280AD008B1052813D0286A20F021
:1009200001002862286A20F0040002E0286A40F0F2
:1009300001002862E06841F2883B98B1FFF792FD20
:1009400082460BE0286A40F004002862EEE700BF10
:10095000FFF788FDA0EB0A0159455AD8286A80079D
:10096000F6D50CE0FFF77EFD824605E0FFF77AFD45
:10097000A0EB0A0159454CD8286A8007F6D41FB16C
:10098000E86920F08050E861E06988B36968C1F3E4
:100990008101022944D00228C6F8608004D0FFF704
:1009A00061FD044638E034E0FFF75CFD074604E0F3
:1009B000FFF758FDC01B02282BD828688001F7D408
:1009C000206AB0F5803F05D16868A16820F4003046
:1009D00008436860D4E908010843696821F4741188
:1009E00008436860C6F86090FFF73CFD044606E0E7
:1009F00025E000BFFFF736FD001B022809D8286854
:100A00008001F7D51BE000BFFFF72CFD001B02287B
:100A100002D90320BDE8F88F28688001F4D40EE0E5
:100A20000128F7D06868226A00F48031914204D12D
:100A3000616A00F47010884201D00120EAE70020CA
:100A4000E8E70000001002400000424280044242F9
:100A5000140000200070004010B5401EB0F1807FEF
:100A600001D3012010BD4FF0E02460610F21601719
:100A700000F095FB0020A06107202061002010BD40
:100A80007047704770B590F83C20012A2CD00124A3
:100A900080F83C40022280F83D2003685A689D6837
:100AA00022F070060A6832435A60104B02689A427C
:100AB0000ED00F4B9A420BD0B2F1804F08D00D4BA5
:100AC0009A4205D00C4B9A4202D00C4B9A4204D168
:100AD000496825F080031943916080F83D4000216A
:100AE00080F83C10084670BD022070BD002C01400B
:100AF000003401400004004000080040000C0040A9
:100B000010B5040003D094F83D0010B107E00120B7
:100B100010BD002084F83C00204600F01FF80220A1
:100B200084F83D00211D206800F0A0FA012084F81F
:100B3000460084F83E0084F83F0084F8400084F8C2
:100B4000410084F8420084F8430084F8440084F8AB
:100B5000450084F83D00002010BD000008B5016884
:100B60001448B1F1804F14D0134A914220D1C16989
:100B700041F00201C161C069002200F00200009052
:100B800006211D20FFF7DAFC1D20BDE80840FFF715
:100B9000C7BCC16941F00101C161C069002200F018
:100BA0000100009004211C20FFF7C8FC1C20ECE78A
:100BB00008BD0000001002400004004090F83D1005
:100BC000012901D001207047022180F83D10016801
:100BD000CA6842F00102CA6000680E4988420ED01D
:100BE0000D4988420BD0B0F1804F08D00B498842A4
:100BF00005D00B49884202D00A49884204D1816855
:100C000001F00701062903D0016841F001010160EC
:100C100000207047002C01400034014000040040D7
:100C200000080040000C004070B5044690F83C00FD
:100C3000012817D0012584F83C50022084F83D009B
:100C40002068826822F0770222F47F42826008687E
:100C5000502830D00DDC20284DD005DC98B310286A
:100C60003BD148E0022070BD302844D0402834D128
:100C700039E0602828D0702806D0B0F5805F2CD0ED
:100C8000B0F5005F29D10AE0CB68D1E901212068E5
:100C900000F032FA2068816841F0770109E0CB6802
:100CA000D1E90121206800F027FA2068816841F429
:100CB0008041816011E0CA684968206800F02EFA1E
:100CC0005021206807E016E0CA684968206800F0F3
:100CD00036FA6021206800F019FA84F83D500020AF
:100CE00084F83C0070BDCA684968206800F016FAB4
:100CF00040212068EFE7226801461046EBE7704785
:100D000070B50446006801694FF00005C9438907C2
:100D100015D4C168C943890711D4E91E01610120B6
:100D20002077206880698007204602D0FFF7E7FF20
:100D300004E000F098F8204600F096F82577206847
:100D40000169C943490717D4C168C943490713D486
:100D50006FF004010161022020772068806910F49F
:100D6000407F204602D0FFF7CAFF04E000F07BF886
:100D7000204600F079F8257720680169C943090702
:100D800016D4C168C943090712D46FF00801016184
:100D9000042020772068C0698007204602D0FFF732
:100DA000AEFF04E000F05FF8204600F05DF8257724
:100DB00020680169C943C90617D4C168C943C90677
:100DC00013D46FF010010161082020772068C069FA
:100DD00010F4407F204602D0FFF791FF04E000F0BE
:100DE00042F8204600F040F8257720680169C943A1
:100DF000C90708D1C168C943C90704D1891E016167
:100E0000204600F033F820680169C943090609D477
:100E1000C168C943090605D46FF08001016120460D
:100E2000FFF72EFE20680169C943490609D4C1684D
:100E3000C943490605D46FF040010161204600F026
:100E400029F820680169C94389060BD4C168C943E0
:100E5000890607D46FF0200101612046BDE870408B
:100E6000FFF70FBE70BD704770470000016807486C
:100E7000B1F1804F06D0064A914205D15FF02001C2
:100E8000FFF7E2BA1021FBE77047000000180140AD
:100E9000000400407047FEE770B586B000241B4890
:100EA0000094019402940394816941F040018161AE
:100EB000816901F040010491816941F0040181617F
:100EC0008069134E00F00400049001220F21304687
:100ED000FFF7C2FA002270213046FFF7BDFA0F205B
:100EE0000125CDE900050320CDE9024069463046E1
:100EF000FFF7AEF97020CDE900050220CDE90240F0
:100F000069463046FFF7A4F906B070BD00100240F4
:100F10000018014010B586B00024124800940194D6
:100F20000294039404944FF080410594016040F6CC
:100F30000F61C0E9011442F20F71C0E9031484612A
:100F4000FFF7DEFD4FF48050009069460548FFF73B
:100F50006BFE049404A903480594FFF793FD06B0C3
:100F600010BD00007800002010B586B000241248A3
:100F7000009401940294039404940E490594016032
:100F800041F61F41C0E9011442F20F71C0E9031498
:100F90008461FFF7B5FD4FF4805000906946064824
:100FA000FFF742FE049404A903480594FFF76AFD85
:100FB00006B010BD00040040C0000020FEE77047EE
:100FC0001CB500F06DFB08490220CDE900010023AB
:100FD000802206A1074800F08FFC002000F0BEFB35
:100FE000BDE81C4000F06ABB040000205461736B34
:100FF000310000006511000810B5FFF739FA00F064
:10100000A9FC012803D0BDE8104000F05FBC10BD72
:1010100010B590B028216846FFF7FBF814210AA804
:10102000FFF7F7F802200090012004901020002420
:10103000059007946846FFF77FFB0F20CDE90A046F
:101040000C940D9400210AA80E94FFF7A9FA10B091
:1010500010BD70470148FFF753BE00007800002024
:101060000148FFF74DBE0000C0000020F0B5026847
:101070001C4B1D4D1D4E1E4F1E4C4FF0804C984278
:1010800009D0A04207D0604505D0A84203D0B042A5
:1010900001D0B84204D122F0700E4A6842EA0E0232
:1010A000984209D0A04207D0604505D0A84203D09D
:1010B000B04201D0B84203D122F44075CA682A4335
:1010C0004D6922F080022A4302608A68C2620A687F
:1010D0008262984201D0A04201D1096901630121D5
:1010E0004161F0BD002C01400004004000080040B8
:1010F000000C00400034014010B5846842EA03222D
:1011000024F47F440A432243826010BD826822F0A7
:1011100070020A4342F007018160704710B5036A0C
:10112000046A24F001040462846924F0F00444EAAF
:10113000021423F00A020A438461026210BD10B552
:10114000036A23F0100303628369046A23F4704383
:1011500043EA023224F0A00343EA011182610162F2
:1011600010BD00000C4E00244FF47A75641CE4B2EC
:10117000052C0DD10024502080F31188BFF34F8F30
:10118000BFF36F8F3146491EFDD2002080F31188D6
:10119000284600F0CBFAE9E71EA10700FEE70907A1
:1011A000090E002804DB00F1E02080F800147047ED
:1011B00000F00F0000F1E02080F8141D704702E0FD
:1011C00008C8121F08C1002AFAD1704770470020D2
:1011D00001E001C1121F002AFBD170471CB507496D
:1011E0000120CDE900010023802205A1074800F07D
:1011F00083FBBDE81C4000F0FFBA000000000020A7
:1012000053746172745F5461736B0000C10F000806
:1012100010B5FFF735F9FFF7FBFEFFF73DFEFFF7CF
:1012200079FEFFF7A1FE0548FFF7C8FC03484830E8
:10123000FFF7C4FCFFF7D2FF002010BD78000020AC
:101240002DE9F0411E4C0F460546E6682068001D5A
:1012500000F0E0F938B9206890F82C10012088409F
:10126000216981432161681C15D1A7B11549226804
:101270004868906023688268DA6022688368121D7B
:101280005A602268121D8260206841610868401C13
:101290000860BDE8F08120683544B54245602168AA
:1012A00005D2E06BBDE8F041091D00F0D4B9A06B98
:1012B000091D00F0D0F9A06A8542EAD2A562E8E7EC
:1012C00018000020BC0100202DE9F041054600F087
:1012D000E7F9364CA068401CA0602068344F10B17C
:1012E000606940B32DE02560A068012829D100265F
:1012F00006EB860007EB800000F09FF9761C052EB8
:10130000F6D32B48643000F098F92948783000F083
:1013100094F927488C3000F090F92548A03000F06F
:101320008CF92348B43000F088F921486430A06378
:101330001430E06305E02068E96AC06A884200D89A
:101340002560606A0121401C6062E86A2269814070
:101350001143216100EB800007EB80004068A8602A
:101360008168E9608268291D51608160E86A00EB4C
:10137000800007EB8001696157F82010491C47F88D
:10138000201000F09BF9606900280CD02068E96A01
:10139000C06A884207D207494FF080500860BFF307
:1013A0004F8FBFF36F8FBDE8F08100001800002061
:1013B0000801002004ED00E010B50446006B00F0C9
:1013C00087F92046BDE8104000F082B90E484FF47E
:1013D0008841420706D0C01D0B4920F00700411A82
:1013E000C1F58841094A00230144C2E900030839D4
:1013F000143A21F0070111604B600B600B1AC0E931
:101400000013936053607047D00100206C000020EF
:10141000144E154CA6F1A0074FF08058DFF84C9001
:1014200012E000BF00F03CF9F068C568281D00F02C
:10143000F1F8A068401EA0606068401E606000F087
:101440003DF92846FFF7B8FF60680028EAD1386800
:101450000128F9D9C9F80080BFF34F8FBFF36F8F10
:10146000F2E70000A80100201800002004ED00E0D1
:101470002DE9F0479946DDE9096480466FF00303E2
:10148000206B03EB8202089D104420F0070761B136
:10149000002023180A5C83F834200A5C12B1401C37
:1014A0001028F6D3002084F84300052D00D304252E
:1014B000201DE56200F0CCF804F1180000F0C8F837
:1014C0002461C5F105006462A0614A464146384680
:1014D00000F08EF82060002E00D03460BDE8F08768
:1014E00030B5114900E011460A688242FBD34B68CF
:1014F0005C18844203D14068184448600846436839
:101500001C18944209D1084C143C2468A24209D00A
:1015100052681A4442600A6812680260814200D030
:10152000086030BD0460F9E76C0000200548816B5D
:10153000096821B1816BC9680968816270474FF001
:10154000FF31FAE718000020502080F31188BFF324
:101550004F8FBFF36F8FFEE770B50446002600F093
:1015600073F9224D286808B9FFF730FFCCB304F0B7
:101570000700C0F11000C1438C4232D82118002965
:101580002FDD686881422CD8184814300246146850
:1015900001E02046144662688A4202D22268002A8C
:1015A000F7D12A6894421CD00668226802606068FD
:1015B0000836421A102A04D9601842606160FFF7A9
:1015C0008FFF61686868401A6860AA68904200D21C
:1015D000A86041F00040606000202060E868401C86
:1015E000E86000F057FA304670BD00005800002057
:1015F00010B5031F4FF080741C601B1F21F0010108
:101600001960191F024B0B60143940380A6010BD75
:1016100049150008D0E9013201699A60D0E9012337
:101620005A604A68824201D182684A60002202619F
:101630000868401E08600868704700F108014FF014
:10164000FF32C0E90112C1600161002101607047F1
:1016500000210161704730B50B685A1C02D000F1BF
:10166000080202E0026904E02246546825689D42AF
:10167000FAD953684B6099608A60516008610168CB
:10168000491C016030BD42684A6093688B60936872
:101690005960916008610168491C01607047000051
:1016A000502080F31188BFF34F8FBFF36F8F024834
:1016B0000168491C016070477400002003490868F4
:1016C000401E086001D180F311887047740000202B
:1016D00070B500281BD0A0F108046068002816DA55
:1016E0002168002913D120F00040606000F0ACF8C0
:1016F000074D60686968084468602046FFF7F0FE9F
:101700002869401C2861BDE8704000F0C3B970BD75
:10171000580000204FF0E020002101618161024962
:1017200041610721016170473F19010010B50200B6
:1017300009D000F089F800211046FFF781FD00F084
:10174000A9F9002807D104494FF080500860BFF381
:101750004F8FBFF36F8F10BD04ED00E070B50546ED
:10176000FFF79EFF214C05B92568281DFFF752FFA2
:1017700058B9E86A1E4A00EB800152F8211021B9DD
:1017800001218140206988432061A86A18B105F1D0
:101790001800FFF73FFF606A401C606220688542C6
:1017A00008D11348291DA030FFF76DFF6068401C69
:1017B000606004E0A068401EA060FFF7B7FEFFF77E
:1017C0007DFF2068854202D02846FFF7F5FD60695D
:1017D00000280AD02068854207D106494FF0805082
:1017E0000860BFF34F8FBFF36F8F70BD18000020EC
:1017F0000801002004ED00E07CB50F480025CDE98C
:1018000000502B4680220DA10E4800F075F80A4CBE
:101810002C3C01280ED1502080F31188BFF34F8F4C
:10182000BFF36F8F4FF0FF30A06201206061E56071
:1018300000F034F8206B7CBD4400002049444C4546
:1018400000000000111400080248416B491C41636C
:1018500070470000180000200E48416B11B10121B3
:10186000C16170470021C16101690B4AB1FA81F180
:10187000C1F11F0101EB810102EB810101F10803BC
:101880004A6852684A609A4201D152684A60D168F7
:10189000016070471800002008010020094810B5B9
:1018A000016841F470010160016841F0704101601C
:1018B000FFF730FF044900200860FEF757FC0020C6
:1018C00010BD000020ED00E07400002010B5502095
:1018D00080F31188BFF34F8FBFF36F8F00F048F88C
:1018E00018B104494FF080500860002080F311883F
:1018F00010BD000004ED00E02DE9FF5F8346DDE947
:101900000E87994616468A469000FFF725FE050089
:101910001DD04C20FFF720FE040015D04C21FEF70F
:1019200078FC25630021CDE90241CDE900874B46D3
:10193000324651465846FFF79BFD2046FFF7C4FC50
:10194000012004B0BDE8F09F2846FFF7C1FE4FF02C
:10195000FF30F6E70548416919B1406B18B1002026
:1019600070470120704702207047000018000020D7
:101970002DE9F041454C0026606B28B1A069401C60
:10198000A0613046BDE8F081E5686D1CE56008D1D6
:10199000A06BE16BA163E063206A401C2062FFF74B
:1019A000C5FDA16A3A488D420FD34FF0000EA16BDE
:1019B000096839B1A16BC968C9684A68954212D2F1
:1019C000A26202E04FF0FF31A1622168C96A01EB17
:1019D000810150F82100012800D90126E069002882
:1019E000CFD00126CDE7D1E902724B69BA60D1E9C7
:1019F00002277A605F680A1D974201D1CF685F6055
:101A0000C1F814E01F687F1E1F60D1F828C0BCF128
:101A1000000F15D0D1E907379F60D1E907377B6008
:101A2000DCF8047001F118039F4202D10B6ACCF874
:101A30000430C1F828E0DCF800305B1ECCF8003040
:101A4000CB6A0127D4F810C09F4047EA0C072761F2
:101A500003EB830300EB83035B688B609F68CF60BD
:101A60009F687A609A60CA6A02EB820200EB820386
:101A70004B6150F822305B1C40F82230C96A226862
:101A8000D26A914293D9012691E700001800002004
:101A9000080100202DE9F04100242746FFF700FE51
:101AA0003F4D686B401E6863686B002872D1A86860
:101AB0003C4B00264FF00108F0BB6BE0D868C468CF
:101AC000D4E90721A06A9160D4E907125160426805
:101AD00004F118018A4201D1216A4160A6620168BD
:101AE000491E0160D4E9022160699160D4E90212C3
:101AF00051604268211D8A4201D1E26842606661FC
:101B00000268521E0260E26AD5F810C008FA02F0BC
:101B100040EA0C00286102EB8200224A8C3A02EB78
:101B200080004068A060D0F808C0C4F80CC0D0F8AD
:101B300008C0CCF8041000E012E08160E06A00EB1D
:101B4000800002EB8001616152F82010491C42F8CC
:101B50002010E06A2968C96A884201D3C5F81C8050
:101B600018680028AAD10CB1FFF7E0FCAC693CB1C1
:101B7000FFF7FEFE08B1C5F81C80641EF8D1AE6107
:101B8000E86938B10849012738070860BFF34F8F6B
:101B9000BFF36F8FFFF792FD3846BDE8F08100007C
:101BA000180000209401002004ED00E00000000077
:101BB000000000000102030406070809DC1B0008FE
:101BC0000000002078000000BE110008541C00082E
:101BD0007800002058490000CE11000800000000E5
:101BE00000000000010000001000000000000000E4
:101BF0000024F400000000000000000000000000CD
:101C000000000000000000000000000000000000D4
:101C100000000000000000000000000000000000C4
:101C200000000000040000000000000000000000B0
:101C300000000000000000000000000000000000A4
:101C40000000000000000000000000000000000094
:041C5000AAAAAAAAE8
:0400000508000131BD
:00000001FF
