:020000040800F2
:1000000048490020E1010008690A0008650A000863
:10001000670A00084D020008610B0008000000009C
:10002000000000000000000000000000490100087E
:100030004F020008000000008D010008C50A0008FA
:10004000FB010008FB010008FB010008FB010008A0
:10005000FB010008FB010008FB010008FB01000890
:10006000FB010008FB010008FB010008FB01000880
:10007000FB010008FB010008FB010008FB01000870
:10008000FB010008FB010008FB010008FB01000860
:10009000FB010008FB010008FB010008FB01000850
:1000A000FB010008FB010008FB010008FB01000840
:1000B000FB010008FB010008FB010008FB01000830
:1000C000FB010008FB010008FB010008FB01000820
:1000D000FB010008FB010008FB010008FB01000810
:1000E000FB010008FB010008FB010008FB01000800
:1000F000FB010008FB010008FB010008FB010008F0
:10010000FB010008FB010008FB010008FB010008DF
:10011000FB010008FB010008FB010008FB010008CF
:10012000FB010008FB010008FB010008FB010008BF
:10013000DFF810D000F078F800480047ED0B000819
:10014000AFF3008048490020224B19680868B0E8E6
:10015000F00F80F30988BFF36F8F4FF0000080F33A
:1001600011884EF00D0E7047000000000648006830
:10017000006880F3088862B661B6BFF34F8FBFF3A3
:100180006F8F00DF00BF00BF08ED00E0EFF30980D4
:10019000BFF36F8F0F4B1A6820E9F00F106008B59E
:1001A0004FF0BF0080F31188BFF34F8FBFF36F8F05
:1001B00000F0EAFF4FF0000080F31188BDE808402E
:1001C00019680868B0E8F00F80F30988BFF36F8FF3
:1001D000704700BF1C000020EFF30580704700004F
:1001E0000648804706480047FEE7FEE7FEE7FEE7D1
:1001F000FEE7FEE7FEE7FEE7FEE7FEE71F0B00086F
:1002000031010008D2B201E000F8012B491EFBD2F7
:1002100070470022F6E710B513460A460446194611
:10022000FFF7F0FF204610BD064C074D06E0E068E2
:1002300040F0010394E8070098471034AC42F6D32D
:10024000FFF77AFFEC1400080C150008FEE7704772
:100250002DE9F84FDFF8C891002409F1040A0AF1EA
:10026000040B23460F270BF1040ED1E00125A54016
:1002700006EA0502AA4276D1DFF8A8C14E68A6EBCD
:100280000C0866452BD00DDC032E34D005DC36B3CC
:10029000012E19D0022E2FD11BE0112E16D0122EB6
:1002A0002AD119E0B8F5881F19D006DCB8F5803FCF
:1002B00015D0B8F5801F1FD111E0B8F5001F0ED082
:1002C000B8F5041F18D10AE0CB6815E0CB681B1DF8
:1002D00012E0CB6808330FE0CB680C330CE08B687E
:1002E0002BB1012B4FF0080303D0456104E0042338
:1002F00002E0056100E00023FF2A01D8064601E084
:1003000000F104064FEA840501D9A5F12005D6F8CD
:10031000008007FA05FC28EA0C0803FA05F548EA0C
:100320000508C6F800804D68ED0070D53E4DAE69F9
:1003300046F00106AE61AD6924F0030605F0010543
:1003400000953A4D06EB050CDCF80850A607360F71
:1003500007FA06F825EA0805DFF8D480404503D1FE
:100360004FF0000825E052E0DFF8C880404502D198
:100370004FF001081DE0DFF8C080404502D14FF08A
:10038000020816E0DFF8B480404502D14FF00308C0
:100390000FE0DFF8AC80404502D14FF0040808E0E0
:1003A000DFF8A080404502D14FF0050801E04FF092
:1003B000060808FA06F848EA0508CCF808804D68EF
:1003C000D9F80060ED034D4601D5164300E0964391
:1003D0002E604D68DAF80060AD03554601D516432E
:1003E00000E096432E604D68DBF80060ED025D464C
:1003F00001D5164300E096432E604D68DEF800609C
:10040000AD02754601D5164300E096432E60641C8C
:100410000A681646E2407FF429AFBDE8F88F000075
:1004200000040140000011100010024000000140D3
:1004300000080140000C0140001001400014014080
:1004400000180140001C0140C26821EA02030A4072
:1004500043EA0241016170470AB101617047090432
:10046000FBE7000001488068704700000C00002096
:100470000248816802781144816070470C000020B6
:10048000074810B5016841F010010160032000F039
:1004900067F8002000F006F800F024F8002010BDF6
:1004A0000020024070B50D4D04464FF47A71287853
:1004B000B1FBF0F00A490968B1FBF0F000F0BEFAB8
:1004C00048B9102C07D200222146501E00F028F80F
:1004D00000206C6070BD012070BD00000C00002089
:1004E000180000200C4808B5816941F001018161C4
:1004F000816901F001010091C16941F08051C16140
:10050000C06900F0805000900448416821F0E0612B
:1005100041F00071416008BD001002400000014040
:10052000F0B40E4B1B680C46C3F30223C3F107055E
:10053000042D00D90425191D072901D2002300E04C
:10054000DB1E012606FA05F1491E214099409E4016
:10055000761E16403143F0BC00F003BB0CED00E00A
:10056000064900F0070208684FF6FF03184040EA0A
:100570000220034A10430860704700000CED00E0C1
:100580000000FA052DE9F0470F46050061D0434E03
:10059000306800F00700B84209D2306820F0070048
:1005A00038433060306800F00700B84251D1286805
:1005B0003B4C810712D5400703D5606840F4E060EA
:1005C00060602878000703D5606840F46050606080
:1005D0006068A96820F0F000084360602878C007D0
:1005E00028D06868012810D02168022810D0890717
:1005F00000292EDA616821F0030101436160FFF7F1
:1006000031FF804641F288390DE021688903EFE728
:100610008901EDE7FFF726FFA0EB0801494502D964
:100620000320BDE8F0876068696800F00C00B0EB5B
:10063000810FEFD1306800F00700B8420BD9306865
:1006400020F0070038433060306800F00700B842FF
:1006500001D00120E5E72878400705D56068E96802
:1006600020F4E060084360602878000706D56068E1
:10067000296920F4605040EAC100606000F018F879
:100680006168084AC1F30311515CC840064908601B
:1006900006480068FFF706FF0020C2E7002002407E
:1006A00000100240DC140008180000201000002098
:1006B00012A185B00FC98DE80F0014A0144A00687C
:1006C00004905168134801F00C03042B10D0082B40
:1006D0000ED1C1F38343C9031DF803000AD5516845
:1006E00004AAC1F34041515C0A4A5043B0FBF1F007
:1006F00005B0704708494843FAE7000002030405C3
:10070000060708090A0B0C0D0E0F1010010200005D
:100710000010024000127A0000093D002DE9F84F58
:10072000040070D02078C04DC00749D06868C0F37D
:100730008100012807D06868C0F38100022809D130
:100740006868C00306D52868800339D5606800282A
:10075000E7D035E06068B0F5803F0BD010B1B0F560
:10076000A02F11D0286820F480302860286820F459
:10077000802002E0286840F480302860606890B1F2
:10078000FFF770FE06460AE0286840F480202860E3
:10079000F0E700BFFFF766FE801B642873D8286867
:1007A0008003F7D50CE0FFF75DFE064605E000BFCD
:1007B000FFF758FE801B6428F0D828688003F7D420
:1007C00020789A4E80074FF001094FF0000839D584
:1007D000686810F00C0F07D06868C0F38100022829
:1007E00009D16868C00306D42868800714D5206939
:1007F000012808D110E02069B0B1C6F80090FFF7D9
:1008000031FE074605E00AE1FFF72CFEC01B022877
:10081000C4D828688007F7D52868616920F0F800F7
:1008200040EAC10028600DE0C6F80080FFF71AFE1C
:10083000074604E0FFF716FEC01B022823D82868ED
:100840008007F7D4207800072CD57948A169D9B161
:10085000C0F80090FFF706FE074604E0FFF702FE2F
:10086000C01B02280FD8686A8007F7D571484FF47B
:10087000FA510068B0FBF1F0009000BF0098411EF3
:100880000091FAD20EE080E0C0F80080FFF7EAFDA8
:10089000074604E0FFF7E6FDC01B022875D8686A2A
:1008A0008007F7D42078400760D5E8690027C000AA
:1008B00008D4E86940F08050E861E869012700F059
:1008C000805000905C480168C90513D401688346D4
:1008D00041F480710160FFF7C5FD824606E000BF6C
:1008E000FFF7C0FDA0EB0A0064284ED8DBF800003B
:1008F000C005F5D5E06801280AD008B1052813D055
:10090000286A20F001002862286A20F0040002E032
:10091000286A40F001002862E06841F2883B98B103
:10092000FFF7A0FD82460BE0286A40F00400286231
:10093000EEE700BFFFF796FDA0EB0A0159455AD834
:10094000286A8007F6D50CE0FFF78CFD824605E0AB
:10095000FFF788FDA0EB0A0159454CD8286A8007AB
:10096000F6D41FB1E86920F08050E861E06988B3EF
:100970006968C1F38101022944D00228C6F8608069
:1009800004D0FFF76FFD044638E034E0FFF76AFD5E
:10099000074604E0FFF766FDC01B02282BD8286835
:1009A0008001F7D4206AB0F5803F05D16868A1685E
:1009B00020F4003008436860D4E9080108436968FE
:1009C00021F4741108436860C6F86090FFF74AFD8F
:1009D000044606E025E000BFFFF744FD001B0228A7
:1009E00009D828688001F7D51BE000BFFFF73AFD62
:1009F000001B022802D90320BDE8F88F2868800177
:100A0000F4D40EE00128F7D06868226A00F480313F
:100A1000914204D1616A00F47010884201D0012033
:100A2000EAE70020E8E70000001002400000424230
:100A300080044242180000200070004010B5401EA3
:100A4000B0F1807F01D3012010BD4FF0E024606140
:100A50000F21601700F085F80020A06107202061B9
:100A6000002010BDFEE7FEE7704700001CB500F057
:100A7000C7FA0D480224CDE90040002380220BA1D3
:100A80000C4800F0D1FB08480023001DCDE90040D0
:100A9000802209A10A4800F0C7FB002000F0F6FA06
:100AA000BDE81C4000F0BABA040000205461736B2A
:100AB00031000000210B00085461736B320000000C
:100AC000410B000810B5FFF7D3FC00F0DBFB012859
:100AD00003D0BDE8104000F091BB10BD10B590B040
:100AE00028216846FFF795FB14210AA8FFF791FB20
:100AF000022000900120049010200024059007940B
:100B00006846FFF70BFE0F20CDE90A040C940D9404
:100B100000210AA80E94FFF735FD10B010BD7047F4
:100B2000064C00BF00F06CFA10212046FFF78CFC49
:100B30000A2000F035F800F071FAF3E700180140E0
:100B4000064C00BF00F05CFA20212046FFF77CFC39
:100B50000A2000F025F800F061FAF3E700180140E0
:100B6000FEE70907090E002804DB00F1E02080F809
:100B70000014704700F00F0000F1E02080F8141D11
:100B8000704702E008C8121F08C1002AFAD1704756
:100B90007047002001E001C1121F002AFBD17047FD
:100BA000044948430921B0FBF1F000BF401EFCD2CC
:100BB00070470000401901001CB507490120CDE92C
:100BC00000010023802205A1074800F02DFBBDE8AD
:100BD0001C4000F0A9BA00000000002053746172AC
:100BE000745F5461736B00006D0A000830B585B006
:100BF000FFF746FCFFF772FF0024154800940194AC
:100C000002940394816941F040018161816901F09E
:100C100040010491816941F00401816180690D4DB9
:100C200000F004000490002270212846FFF714FC15
:100C3000702000900120CDE9010402200390694654
:100C40002846FFF705FBFFF7B7FF05B0002030BDD2
:100C500000100240001801402DE9F041054600F067
:100C6000CFF9364CA068401CA0602068344F10B10A
:100C7000606940B32DE02560A068012829D10026D5
:100C800006EB860007EB800000F09FF9761C052E2E
:100C9000F6D32B48643000F098F92948783000F0FA
:100CA00094F927488C3000F090F92548A03000F0E6
:100CB0008CF92348B43000F088F921486430A063EF
:100CC0001430E06305E02068E96AC06A884200D811
:100CD0002560606A0121401C6062E86A22698140E7
:100CE0001143216100EB800007EB80004068A860A1
:100CF0008168E9608268291D51608160E86A00EBC3
:100D0000800007EB8001696157F82010491C47F803
:100D1000201000F083F9606900280CD02068E96A8F
:100D2000C06A884207D207494FF080500860BFF37D
:100D30004F8FBFF36F8FBDE8F08100001C000020D3
:100D40007C00002004ED00E010B50446006B00F0CC
:100D50006FF92046BDE8104000F06AB90E484FF424
:100D60008841420706D0C01D0B4920F00700411AF8
:100D7000C1F58841094A00230144C2E9000308394A
:100D8000143A21F0070111604B600B600B1AC0E9A7
:100D900000139360536070474401002070000020EE
:100DA000144E154CA6F1A0074FF08058DFF84C9078
:100DB00012E000BF00F024F9F068C568281D00F0BB
:100DC000F1F8A068401EA0606068401E606000F0FE
:100DD00025F92846FFF7B8FF60680028EAD138688F
:100DE0000128F9D9C9F80080BFF34F8FBFF36F8F87
:100DF000F2E700001C0100201C00002004ED00E0D0
:100E00002DE9F0479946DDE9096480466FF0030358
:100E1000206B03EB8202089D104420F0070761B1AC
:100E2000002023180A5C83F834200A5C12B1401CAD
:100E30001028F6D3002084F84300052D00D30425A4
:100E4000201DE56200F0CCF804F1180000F0C8F8AD
:100E50002461C5F105006462A0614A4641463846F6
:100E600000F08EF82060002E00D03460BDE8F087DE
:100E700030B5114900E011460A688242FBD34B6845
:100E80005C18844203D140681844486008464368AF
:100E90001C18944209D1084C143C2468A24209D081
:100EA00052681A4442600A6812680260814200D0A7
:100EB000086030BD0460F9E7700000200548816BD0
:100EC000096821B1816BC9680968816270474FF078
:100ED000FF31FAE71C000020BF2080F31188BFF328
:100EE0004F8FBFF36F8FFEE770B50446002600F00A
:100EF00043F9224D286808B9FFF730FFCCB304F05E
:100F00000700C0F11000C1438C4232D821180029DB
:100F10002FDD686881422CD81848143002461468C6
:100F200001E02046144662688A4202D22268002A02
:100F3000F7D12A6894421CD0066822680260606873
:100F40000836421A102A04D9601842606160FFF71F
:100F50008FFF61686868401A6860AA68904200D292
:100F6000A86041F00040606000202060E868401CFC
:100F7000E86000F027FA304670BD00005C000020F9
:100F800010B5031F4FF080741C601B1F21F001017E
:100F90001960191F024B0B60143940380A6010BDEC
:100FA000D90E0008D0E9013201699A60D0E9012325
:100FB0005A604A68824201D182684A600022026116
:100FC0000868401E08600868704700F108014FF08B
:100FD000FF32C0E90112C160016100210160704768
:100FE00000210161704742684A6093688B60936892
:100FF0005960916008610168491C016070470000F8
:10100000BF2080F31188BFF34F8FBFF36F8F02486B
:101010000168491C01607047780000200349086896
:10102000401E086001D180F31188704778000020CD
:1010300070B500281BD0A0F108046068002816DAFB
:101040002168002913D120F00040606000F094F87E
:10105000074D60686968084468602046FFF708FF2C
:101060002869401C2861BDE8704000F0ABB970BD34
:101070005C0000204FF0E020002101618161024905
:1010800041610721016170477FEE360070B505466A
:10109000FFF7B6FF214C05B92568281DFFF782FF31
:1010A00058B9E86A1E4A00EB800152F8211021B9B4
:1010B00001218140206988432061A86A18B105F1A7
:1010C0001800FFF76FFF606A401C6062206885426D
:1010D00008D11348291DA030FFF785FF6068401C28
:1010E000606004E0A068401EA060FFF7E7FEFFF725
:1010F00095FF2068854202D02846FFF725FE6069EB
:1011000000280AD02068854207D106494FF0805058
:101110000860BFF34F8FBFF36F8F70BD1C000020BE
:101120007C00002004ED00E07CB50F480025CDE9EF
:1011300000502B4680220DA10E4800F075F80A4C95
:101140002C3C01280ED1BF2080F31188BFF34F8FB4
:10115000BFF36F8F4FF0FF30A06201206061E56048
:1011600000F034F8206B7CBD4800002049444C4519
:1011700000000000A10D00080248416B491C4163BA
:10118000704700001C0000200E48416B11B1012186
:10119000C16170470021C16101690B4AB1FA81F157
:1011A000C1F11F0101EB810102EB810101F1080393
:1011B0004A6852684A609A4201D152684A60D168CE
:1011C000016070471C0000207C000020094810B519
:1011D000016841F47F010160016841F07F410160D5
:1011E000FFF748FF044900200860FEF7BFFF00201A
:1011F00010BD000020ED00E07800002010B5BF20F9
:1012000080F31188BFF34F8FBFF36F8F00F048F862
:1012100018B104494FF080500860002080F3118815
:1012200010BD000004ED00E02DE9FF5F8346DDE91D
:101230000E87994616468A469000FFF755FE050030
:101240001DD04C20FFF750FE040015D04C21FEF7B6
:10125000E0FF25630021CDE90241CDE900874B463F
:10126000324651465846FFF7CBFD2046FFF7F4FCC7
:10127000012004B0BDE8F09F2846FFF7D9FE4FF0EB
:10128000FF30F6E70548416919B1406B18B10020FD
:101290007047012070470220704700001C000020AA
:1012A0002DE9F041454C0026606B28B1A069401C37
:1012B000A0613046BDE8F081E5686D1CE56008D1AD
:1012C000A06BE16BA163E063206A401C2062FFF722
:1012D000F5FDA16A3A488D420FD34FF0000EA16B85
:1012E000096839B1A16BC968C9684A68954212D2C8
:1012F000A26202E04FF0FF31A1622168C96A01EBEE
:10130000810150F82100012800D90126E069002858
:10131000CFD00126CDE7D1E902724B69BA60D1E99D
:1013200002277A605F680A1D974201D1CF685F602B
:10133000C1F814E01F687F1E1F60D1F828C0BCF1FF
:10134000000F15D0D1E907379F60D1E907377B60DF
:10135000DCF8047001F118039F4202D10B6ACCF84B
:101360000430C1F828E0DCF800305B1ECCF8003017
:10137000CB6A0127D4F810C09F4047EA0C072761C9
:1013800003EB830300EB83035B688B609F68CF6094
:101390009F687A609A60CA6A02EB820200EB82035D
:1013A0004B6150F822305B1C40F82230C96A226839
:1013B000D26A914293D9012691E700001C000020D7
:1013C0007C0000202DE9F04100242746FFF718FE9D
:1013D0003F4D686B401E6863686B002872D1A86837
:1013E0003C4B00264FF00108F0BB6BE0D868C468A6
:1013F000D4E90721A06A9160D4E9071251604268DC
:1014000004F118018A4201D1216A4160A662016893
:10141000491E0160D4E9022160699160D4E9021299
:1014200051604268211D8A4201D1E26842606661D2
:101430000268521E0260E26AD5F810C008FA02F093
:1014400040EA0C00286102EB8200224A8C3A02EB4F
:1014500080004068A060D0F808C0C4F80CC0D0F884
:1014600008C0CCF8041000E012E08160E06A00EBF4
:10147000800002EB8001616152F82010491C42F8A3
:101480002010E06A2968C96A884201D3C5F81C8027
:1014900018680028AAD10CB1FFF710FDAC693CB167
:1014A000FFF7FEFE08B1C5F81C80641EF8D1AE61DE
:1014B000E86938B10849012738070860BFF34F8F42
:1014C000BFF36F8FFFF7AAFD3846BDE8F08100003B
:1014D0001C0000200801002004ED00E000000000D6
:1014E0000000000001020304060708090C150008AB
:1014F000000000207C000000820B00088815000816
:101500007C000020CC480000920B00080000000086
:1015100000000000000000000100000010000000BA
:10152000000000000024F4000000000000000000A3
:1015300000000000000000000000000000000000AB
:10154000000000000000000000000000000000009B
:101550000000000000000000040000000000000087
:10156000000000000000000000000000000000007B
:10157000000000000000000000000000000000006B
:0815800000000000AAAAAAAABB
:0400000508000131BD
:00000001FF
